:020000040800F2
:10000000C04A002099010008774E0008F94700080F
:10001000754E00084D0B0008D15C00080000000080
:1000200000000000000000000000000001010008C6
:10003000B1210008000000004501000855550008E6
:10004000B3010008B3010008B3010008B3010008C0
:10005000B3010008B3010008B3010008B3010008B0
:10006000B3010008B3010008B3010008B3010008A0
:100070007D0B0008890B0008B3010008950B0008F0
:10008000B3010008B3010008B3010008B301000880
:10009000B3010008B3010008B3010008B301000870
:1000A000B3010008B3010008B3010008B301000860
:1000B00055560008B3010008B3010008B301000859
:1000C000B3010008B3010008B3010008B301000840
:1000D000B3010008B3010008B3010008B55C0008D3
:1000E000B3010008B3010008B3010008DFF80CD029
:1000F00000F06CFC00480047ED880008C04A002072
:10010000224B19680868B0E8F00F80F30988BFF344
:100110006F8F4FF0000080F311884EF00D0E704786
:100120000000000006480068006880F3088862B696
:1001300061B6BFF34F8FBFF36F8F00DF00BF00BF0B
:1001400008ED00E0EFF30980BFF36F8F0F4B1A68E3
:1001500020E9F00F106008B54FF0500080F31188CF
:10016000BFF34F8FBFF36F8F09F0B8F94FF0000066
:1001700080F31188BDE8084019680868B0E8F00FFE
:1001800080F30988BFF36F8F704700BFCC02002057
:10019000EFF3058070470000064880470648004797
:1001A000FEE7FEE7FEE7FEE7FEE7FEE7FEE7FEE727
:1001B000FEE7FEE7E9550008ED000008202A04DB11
:1001C000203A21FA02F00021704721FA02F3D040D0
:1001D000C2F1200291400843194670470649074A78
:1001E0000868504343F239021044086040087047E1
:1001F0000149086070470000080300206D4EC641A9
:1002000040EA01039B0703D009E008C9121F08C098
:10021000042AFAD203E011F8013B00F8013B521E18
:10022000F9D27047D2B201E000F8012B491EFBD28F
:1002300070470022F6E710B513460A4604461946F1
:10024000FFF7F0FF204610BD421E12F8013F002BC1
:10025000FBD111F8013B02F8013B002BF9D17047AB
:1002600030B505462A460B4612F8010B13F8014B30
:1002700008B1A042F8D01CB1002802D06D1CF1E7F3
:10028000284630BD421C10F8011B0029FBD1801A02
:10029000704710B5002200E0521C835C8C5CA342C6
:1002A00001D1002BF8D1D8B2E1B2401A10BD0346FB
:1002B00011F8012B00F8012B002AF9D118467047DC
:1002C00070B5064607F000FA046805460A220021C8
:1002D000304600F0AFFA2C6070BD80EA010210B524
:1002E00002F00043400022D04A001FD0010E01EB73
:1002F0001261C0F35600C2F3560240F4000042F40B
:100300000002A0FB022000047F39140400D0401C2E
:1003100050EA124001D44000491EC2B20C0604EB60
:10032000D010401C4008802A02D003E0002010BDFD
:1003300020F00100002900DA0020184310BD2DE94B
:10034000FE4F804681EA0300C00F0C46009021F06A
:10035000004123F00045B8EB0200A94105D2404618
:10036000214690461C460B46024623F000401043AF
:1003700047D0270DC7F30A00C3F30A510290401A71
:10038000019040286BDAC3F3130040F4801B0098FF
:10039000924620B10023D2EB030A63EB0B0B0198CA
:1003A0005946C0F14002504600F023FA06460D4679
:1003B00050465946019A00F02BFA10EB08006141B3
:1003C000002487EA115284EAE7731A4340D0009A66
:1003D00062B3019A012A4FEA075215DC001B61EB58
:1003E00002014FF0004202EA0752CDE90042001C30
:1003F00041F5801132462B4600F09AFA03B0BDE871
:10040000F08F40462146F9E7001B61EB0201001C1A
:1004100041F5801300185B412018A2F5001747EB47
:10042000030140EAD570B6196D4111E06D084FEA3D
:10043000360645EAC0754FEA0752001B61EB020120
:10044000001C41F5801149084FEA30000019514164
:1004500032462B4603B0BDE8F04F00F05ABA009880
:10046000012240000023D0EB020263EBE07300980E
:1004700021464FEAE074B8EB000061EB0401E9E7C4
:1004800083F000435BE781F0004158E72DE9FE4F20
:1004900081EA030404F0004421F0004100944FF08D
:1004A000000B23F0004350EA01045ED052EA03043B
:1004B0005BD0C3F30A54C1F30A552C44A4F2F334BD
:1004C0000194A0FB0254C1F3130141F48011C3F362
:1004D000130343F4801301FB024400FB034E840A20
:1004E000970A44EA815447EA8357A4FB07680295B8
:1004F0008D0A05FB07854FEA932C04FB0C54270556
:10050000029D4FEA065847EA1637B5EB08056EEB31
:10051000070C870E920E47EA811742EA8312A7FB67
:100520000201B6EB0B0164EB00042B0D43EA0C3324
:100530005E1844EB1C50DA465146E7FB0201C5F356
:1005400013044FEA0B3343EA14534FEA0432019C7D
:1005500043EA0603A4F10C040294009CCDE900B424
:1005600000F0E6F903B0BDE8F08F00200146F9E79E
:100570002DE9F04D81EA030404F0004B21F0004521
:1005800014464FF0000A23F0004150EA050220D043
:1005900054EA01021DD0C5F30A570246C5F31303FE
:1005A000C1F31300C1F30A5640F4801543F48013DD
:1005B000A7EB0608101BD64608F2FD3873EB0500C2
:1005C00002D308F1010801E092185B41B8F1000F75
:1005D00003DA00200146BDE8F08D00204FF48011C1
:1005E000064684460EE0171B73EB050705D3121B66
:1005F00063EB050306434CEA010C49084FEA30005F
:1006000092185B4150EA0107EDD152EA030012D083
:1006100082EA040083EA0501084305D0101BAB41C0
:1006200006D20122002306E000224FF0004302E040
:100630006FF0010253101AEB06004CEB085110EB5F
:100640000A0041EB0B01BDE8F04D00F062B970B556
:1006500021F0004303430CD0C1F30A550024D5EB2D
:10066000040564EB0403D617AD1AB34102DB002086
:10067000014670BD201841EB025170BD9623002247
:10068000114600F018B90EB540F233410291002135
:10069000CDE900110A460B4600F04AF903B000BD4F
:1006A000C1F30A5210B5C1F3130140F2FF3341F414
:1006B00080119A4201DA002010BD40F233439A4281
:1006C000A2F2334203DC5242FFF778FD10BD9040A6
:1006D00010BD00F0004230F000400AD0C10D01F51D
:1006E0006071C0F3160042EA0151C208400711438D
:1006F000704700200146704730B5041E71F10004B8
:1007000004DB4FF00044404264EB0101141E73F11E
:10071000000405DB1C464FF00043524263EB040328
:100720008B4208BF824230BD30B5041E71F1000417
:1007300004DB4FF00044404264EB0101141E73F1EE
:10074000000405DB1C464FF00043524263EB0403F8
:10075000994208BF904230BD01F0004330B421F00F
:10076000004150EA010206D00A0DA2F56072C1F301
:100770001301002A02DC30BC00207047440F44EA19
:10078000C104C100E01830BC00EBC25000F08AB8D0
:100790002DE9F05F0546002092469B4688460646B6
:1007A000814640241BE02846414647462246FFF743
:1007B00005FD53465A46C01A914110D311461846BA
:1007C000224600F016F82D1A67EB01084F46224624
:1007D0000120002100F00DF817EB00094E41201E0A
:1007E000A4F10104DFDC484631462A464346BDE811
:1007F000F09F202A04DB203A00FA02F10020704723
:100800009140C2F1200320FA03F31943904070474E
:10081000202A06DBCB17203A41FA02F043EAE073C4
:1008200006E041FA02F3D040C2F1200291400843B1
:10083000194670472DE9F04791460F468046044619
:10084000002614F8015B2DB100F0D2F80068405D7D
:10085000C007F6D12B2D02D02D2D18D0641E4A468C
:100860003946204600F0C8F827B13968A14201D1C5
:10087000C7F8008071054FF002040BD540420028F4
:1008800003DD06F021FF0460A007BDE8F08746F411
:100890008066E4E70028F8DA06F016FF04606FF0DF
:1008A0000040F2E70029A8BF7047401C490008BF7C
:1008B00020F00100704710B4B0FA80FC00FA0CF090
:1008C00050EA010404BF10BC704749B1CCF12004C8
:1008D00021FA04F411FA0CF118BF01212143084355
:1008E000A3EB0C01CB1D4FEA00614FEA102042BF81
:1008F000002010BC704700EBC35010440029A4BF77
:1009000010BC7047401C490008BF20F0010010BC1B
:10091000704710B5141E73F1000408DA401C41F151
:10092000000192185B411A4301D120F0010010BD73
:100930002DE9F04D92469B4611B1B1FA81F202E0E9
:10094000B0FA80F220329046FFF753FF04460F467C
:1009500040EA0A0041EA0B0153465A46084313D0C5
:10096000114653EA010019D0C8F140025046FFF782
:1009700025FC05460E46504659464246FFF739FFCC
:10098000084305D0012004E020463946BDE8F08D3B
:100990000020054346EAE0762C4337430A98630576
:1009A000E40AA0EB08000022FD0A44EA47540A309A
:1009B00002D500200146E9E7010510196941DDE98A
:1009C000084500196941BDE8F04DA2E7064C074D06
:1009D00006E0E06840F0010394E80700984710340F
:1009E000AC42F6D3FFF786FB60AB000880AB000893
:1009F000004870473CAB00082DE9F05F8246007864
:100A0000002715468B460AF10104B946302801D06B
:100A10009DB113E014F8010B0127782803D0582862
:100A200001D045B10AE00DB1102D07D100271025E6
:100A300014F8010B02E0082500E00A250026B04664
:100A40000EE005FB080005FB06F1012701EB10464F
:100A50001FFA80F8B6F5803F00D3B94614F8010BB1
:100A6000294600F048F80028EBDABBF1000F05D06A
:100A70000FB1641E00E05446CBF80040B9F1000FFE
:100A800006D006F021FE02210160C81EBDE8F09FDD
:100A900048EA0640FAE70EB5C10F80EAE070084464
:100AA000CA07002140F233438DE80E000A460B4688
:100AB000FFF73EFF03B000BD70B5C1F30A5201F06D
:100AC00000450024C1F3130140F2FF3341F48011CB
:100AD0009A4201DA002070BD40F233439A42A2F2FA
:100AE000334203DC5242FFF769FB00E090402C43A5
:100AF000F1D0404270BD3A2800D2303820F02002B8
:100B0000412A01D3A2F13700884201D34FF0FF30D0
:100B1000704730B58C1810F8012B12F00F0301D17B
:100B200010F8013B120906D110F8012B03E010F870
:100B3000015B01F8015B5B1EF9D101E001F8013BAB
:100B4000521EFBD1A142E6D3002030BDFEE70000DB
:100B500010B54FF6FF72084B09E000BF10F8014BCB
:100B60005440E4B2491E33F8144084EA12220029AA
:100B7000F4DCD04380B210BD90000020014801F0A9
:100B800011BD00002C050020014801F00BBD000044
:100B9000E804002070B51F4C00252078012804D1FE
:100BA000257000211C4803F00DFAA078012814D10B
:100BB0006089401C80B260812189884208D9174928
:100BC000A5706581012008700021134803F0FAF92F
:100BD0006089C10705D008F023FA6078012803D0A6
:100BE00012E008F0E5F9F8E7A07868B9A088401CA1
:100BF00080B2A080E188491E884205DD6570A5802D
:100C00000021054803F0DEF9BDE87040044801F01A
:100C1000C9BC000024000020A4030020A40200207E
:100C2000E403002010B500F011F8BDE8104000F01A
:100C300003B8704770470000024A0021024801F0E3
:100C40008DBD0000330C0008E4030020024A01219E
:100C5000024801F083BD0000350C0008E4030020C9
:100C600010B50C46811D4FF47A72204603F086FBC6
:100C70002068C16841F01001C16010BD30B590F826
:100C800040500124AC40C56B6C60046863604368ED
:100C9000102B036803D099600068C26030BD9A6071
:100CA0000068C16030BD000001490248FFF7D8BFAD
:100CB000A80400207005002038B5154C0021E08004
:100CC000144803F07FF91448416941F00101416182
:100CD000406900F001000090202004F009FAFFF7BD
:100CE000A1FF012060700020A0801D2104F10C02F2
:100CF00022F81010401C80B23028F9D301B0044A09
:100D0000BDE8304030230C320021024803F0E8B83F
:100D100024000020A403002000100240F7B517466D
:100D20000D4600244FF47A761AE0E1B23A46BDF857
:100D3000000000F04BF900F043F8012007F062FEDC
:100D4000BDF8000000F074FDBDF80000C0EB00101D
:100D50004000B0FBF6F0401C07F054FE641CA4B247
:100D6000AC42E2D3FEBD0000F7B50D464FF4407132
:100D70001248FFF75EFA00244FF47A761AE0E1B2E7
:100D80000122BDF8000000F075F900F019F801200B
:100D900007F038FEBDF8000000F04AFDBDF8000085
:100DA000C0EB00104000B0FBF6F0401C07F02AFE3C
:100DB000641CA4B2AC42E2D3FEBD0000360E00209B
:100DC00008B500210D4803F0FDF80D48416941F0D8
:100DD00001014161406900F001000090002004F031
:100DE00087F9084901203223087001B0064A002122
:100DF00002485DF804EB03F073B80000A403002080
:100E00000010024024000020D20D0020F1B5002483
:100E10004FF47A751AE000BFBDF80010204600F0CC
:100E20008DFCFFF7CDFF012007F0ECFDBDF80000C1
:100E300000F0FEFCBDF80000C0EB00104000B0FB6D
:100E4000F5F0401C07F0DEFD641CA4B2BDF8000004
:100E50008442E1D34FF4407631461648FFF7E9F972
:100E600000241CE0BDF80000BDF80010001B80B29B
:100E700000F064FCFFF7A4FF012007F0C3FDBDF8FC
:100E8000000000F0D5FCBDF80000C0EB00104000F1
:100E9000B0FBF5F0401C07F0B5FD641CA4B2BDF832
:100EA00000008442DED33146BDE8F8400148FFF738
:100EB000C0B90000360E002031B500244FF47A7519
:100EC00017E0204600F0FAFBFFF77AFF012007F059
:100ED00099FDBDF8000000F0ABFCBDF80000C0EBD0
:100EE00000104000B0FBF5F0401C07F08BFD641CC7
:100EF000A4B2BDF800008442E3D300241BE000BF8D
:100F0000BDF80000001B80B200F0D8FBFFF758FFCF
:100F1000012007F077FDBDF8000000F089FCBDF866
:100F20000000C0EB00104000B0FBF5F0401C07F0E3
:100F300069FD641CA4B2BDF800008442E0D338BD52
:100F400073B500244FF47A7518E00A21204600F0AA
:100F500023FCFFF735FF012007F054FDBDF800002A
:100F600000F066FCBDF80000C0EB00104000B0FBD4
:100F7000F5F0401C07F046FD641CA4B2BDF800006B
:100F80008442E2D300241BE0BDF800000A21001BCC
:100F900080B200F001FCFFF713FF012007F032FDE3
:100FA000BDF8000000F044FCBDF80000C0EB0010EC
:100FB0004000B0FBF5F0401C07F024FD641CA4B217
:100FC000BDF800008442DFD37CBD000070B505464B
:100FD0001446224E0846FFF751FB3146FFF77DF9D4
:100FE000FFF777FB1E4A1F4BFFF750FAFFF7B4FBE2
:100FF000FFF76FFB00221C4BFFF7A1F908F048F840
:101000000722FFF724FB0022184BFFF798F9FFF7A0
:1010100047FBC3B200200146154A1BE0012C04D057
:10102000022C08D0032C0DD012E000EB40069155A5
:101030001644737004E000EB40069355164471703B
:10104000B17005E000EB4006915516447170B37025
:10105000401C80B2A842E1D370BD0000B5B4B43FDB
:101060005DA79196CADB913F0000134000006040ED
:10107000360E00202DE9F04104462B4D0846FFF7BF
:10108000FDFA2946FFF729F9FFF723FB274A284BEA
:10109000FFF7FCF9FFF760FBFFF71BFB0022254B76
:1010A000FFF74DF907F0F4FF0722FFF7D0FA00220F
:1010B000214BFFF744F9FFF7F3FAC3B20020461EB5
:1010C000A50802461D492AE0B0EB940F03D200EBBD
:1010D0004007CA551EE006EB9407874208DAB0EBDA
:1010E000450F05D200EB4007CB550F447A7013E053
:1010F00006EB450787420ADA05EB4507874206D922
:1011000000EB4007CA550F447A70BB7005E000EB56
:101110004007CB550F447B70BA70401C80B2A04290
:10112000D2D3BDE8F0810000B5B4B43F5DA791967D
:10113000CADB913F0000134000006040360E0020E3
:1011400031B54FF440711448FFF773F800244FF4A1
:101150007A751BE00A21204600F020F8FFF730FEE8
:10116000012007F04FFCBDF8000000F061FBBDF866
:101170000000C0EB00104000B0FBF5F0401C07F091
:1011800041FC0A2007F03EFC641CA4B2BDF800003C
:101190008442DFD338BD0000360E002070B5FF2436
:1011A000274B00EB4005042801D25C5570BD02D1ED
:1011B0002348447370BD224EA0F1050100EB4002AC
:1011C0003244062901D2947070BDA0F10B060021B3
:1011D0000E2E01D291701CE0A0F119061C2E2BD30B
:1011E0001C3E082E22D3083E062EF3D3B61F132E24
:1011F0001CD3133E1C2EEDD31C3E0A2E1CD30A3EDC
:10120000162EE7D3163E212E10D3213E052E03D2F3
:1012100094705470595570BDA0F1B806032E0BD3CD
:10122000F61E0E2ED6D30E3E0E2E02D294705170A4
:10123000F0E7D7380E28EED291705170B5E7000074
:10124000360E002030B5ED4CFF236218F0B30128B4
:101250005BD0022862D0032860D004286BD0052818
:1012600073D0062872D0072871D0082870D00928BA
:101270006FD00A286ED00B286DD00C286CD00D28AA
:101280006BD00E286AD00F2869D0102868D011289A
:1012900067D0122879D0132827D182F85B3282F8E0
:1012A0005E3282F8613282F8643282F8673282F804
:1012B0006A3282F86D3282F8703282F8733282F8C4
:1012C000763282F8793282F87C3200E00EE082F8E1
:1012D0007F3282F8823282F8913282F88E3282F83E
:1012E0008B3282F8883282F8853230BD00EB4005BF
:1012F00025440D44401CC0B285F84B301C28F5D362
:1013000082F8C63082F8C33030BD82F8483082F8A7
:10131000453002F8423F82F87E3030BD82F8BD3061
:1013200082F8BA3082F8B73082F83F3082F83C3029
:1013300082F8393030BD6354D37093715372137394
:1013400082F8363082F89F3030BD0BE01EE036E088
:101350003CE054E070E092E0A6E0C2E0D6E0EAE0D3
:1013600000E120E182F8C93082F8A23082F8A5308D
:1013700082F8A83082F8AB3082F8333082F830300F
:1013800082F82D3082F82A30DEE723E182F8AE3091
:1013900082F8B13082F8B43082F8CC3082F8CF30A5
:1013A00082F8D23082F8D53002F80F3FD3709371B3
:1013B00053721373D373137653759374C4E702F89F
:1013C000D83FD370937153721373BDE782F8E7303F
:1013D00082F8EA3082F8ED3082F8F03082F8F330AB
:1013E00082F8B63182F8B93182F8BC3182F8BF3167
:1013F00082F8C23182F8C53182F8C831A4E782F898
:10140000F63082F8F93082F8FC3082F8FF3082F84A
:10141000B33182F8B03182F8AD3182F8AA3182F866
:10142000CB3182F8CE3182F8D13182F8D43182F8D2
:10143000D73182F8DA3187E782F8023182F8053154
:1014400082F8083182F80B3182F8A73182F8A43192
:1014500082F8A13182F89E3182F8DD3182F8E031E4
:1014600082F8E33182F8E63182F8E93182F82532F8
:1014700082F8283282F82B3282F82E3264E782F822
:101480000E3182F8113182F8143182F89B3182F8E2
:10149000983182F8EC3182F8EF3182F8F23182F83B
:1014A000223282F81F324FE782F8173182F81A3160
:1014B00082F81D3182F8953182F8923182F88F31AD
:1014C00082F88C3182F8893182F8F53182F8F8316E
:1014D00082F8FB3182F8FE3182F81C3282F8193230
:1014E00032E782F8203182F8233182F8263182F8FF
:1014F000293182F8863182F8833182F8803182F88E
:10150000013282F8043282F807321DE782F82C316A
:1015100082F82F3182F8323182F8353182F87D310C
:1015200082F87A3182F8773182F80A3282F80D3205
:1015300082F8103208E782F8383182F83B3182F8BD
:101540003E3182F8413182F8743182F8133282F8E8
:10155000163282F8313282F8343282F8373282F829
:101560003A32F1E682F8443182F8473182F84A3162
:1015700082F84D3182F8713182F86E3182F86B3128
:1015800082F8683182F8653182F8623182F83D3242
:1015900082F8403282F8433282F8463282F8AC3226
:1015A00082F8AF32D0E682F8503182F8533182F8B7
:1015B0005F3182F85C3182F8493282F84C3282F82D
:1015C0004F3282F8A93282F8A63282F8A33282F82A
:1015D000A032B9E682F8593182F8563182F8523297
:1015E00082F8553282F8583282F89D3282F89A3267
:1015F00082F8973282F89432A6E60000360E002078
:101600002DE9F3410E464FF4407739462448FEF762
:1016100010FE00244FF47A7531462046FFF712FE83
:10162000FFF7CEFB012007F0EDF9BDF8000000F058
:10163000FFF8BDF80000C0EB00104000B0FBF5F073
:10164000401C01F0E9F81E2007F0DCF9641CA4B28C
:10165000142CE1D339461248FEF7EBFD1424641E26
:10166000A0B23146FFF7EEFDFFF7AAFB012007F01D
:10167000C9F9BDF8000000F0DBF8BDF80000C0EBD0
:1016800000104000B0FBF5F0401C01F0C5F81E2032
:1016900007F0B8F92404240CE1D1BDE8FC81000076
:1016A000360E00200B4601461846FEF7A9BD0B4634
:1016B00001461846FEF7A4BDFEF7A2BD10B50446CC
:1016C0004FF440711C48FEF7B4FD1B4804EB440284
:1016D000002181541044FF2241708270C170027158
:1016E00041718171C171027241728272C172017362
:1016F00041738273C17302744174817780F8222030
:1017000080F8261080F8481080F84F1080F8532099
:1017100080F85A1080F85E2080F8621080F88110FE
:1017200080F87C1080F87D2080F8961080F89A2050
:1017300080F89E1010BD0000360E0020F0B5154C4C
:1017400000EB40050022FF262B19B0EB910F02D2CF
:1017500066555A701CE04FF0FF3707EB910C84453B
:1017600006DAB0EB510F03D262555A709E70F0BD8D
:1017700007EB510C8F0807EB4707844501DA8742D6
:10178000E6D87F1E8742F2DA8842F0D262555E7058
:101790009A70F0BD360E002010B504464FF440712B
:1017A0002248FEF746FD214904EB4403FF20C854BC
:1017B00000221944142C4A708A70C8700A714A7148
:1017C0008871CA710A7248728A72CA7208734A733F
:1017D0008A73C8730A744A7417D901F83C2C01F84B
:1017E0003B0C01F83A2C01F8392C01F8380C01F8BF
:1017F000372C01F8362C01F8350C01F8342C01F89F
:10180000332C01F8320C01F8312C1E2C0CD901F8C4
:101810005A2D4A708870CA700A7148718A71CA71EB
:1018200008724A728A72C87210BD0000360E00201B
:1018300038B5114C00212081104802F0C3FB10483C
:10184000416941F001014161406900F001000090EF
:10185000202003F04DFCFFF7E5F9022000F034FDF5
:101860000120A070608101B03023BDE83040054AFE
:101870000021024802F034BB24000020A403002011
:10188000001002403611002010B50446FFF798FA08
:10189000012000F0C1FF2046FFF7CAFFC4EB04108F
:1018A00040004FF47A71B0FBF1F0BDE81040401CED
:1018B00000F0B2BF2DE9F04FF94B01280ED00228FD
:1018C00026D04FF0060B4FF01C0E4FF00E0A0328E7
:1018D00036D0042854D0052875D04EE00020451C91
:1018E000002400EB4000C618105D0F5DC01B68436C
:1018F0004FEAE07C00EB9C7007EBA0003055641CC5
:10190000E4B2032CF0D3E8B20428E8D3BDE8F08FAA
:101910000424002004EB4405EE18155C0F5CED1B5D
:101920004FEAE57C05EB9C7507EBA5053554401C9B
:10193000C0B20328F1D3641CE4B2052CE9D3E5E777
:1019400005245F46002504EB440C261F0CEB03091D
:1019500012F8058011F805C0A8EB0C0808FB06F882
:1019600098FBF7F8C44409F805C06D1CEDB2032DCF
:10197000EED3641CE4B20B2CE4D3062844D01EE062
:101980000B24574604EB440C0025A4F10A060CEB8B
:10199000030900BF12F8058011F805C0A8EB0C0878
:1019A00008FB06F898FBF7F8C44409F805C06D1C5D
:1019B000EDB2032DEED3641CE4B2192CE2D3072858
:1019C00043D01EE0FFE71924774604EB440C0025C2
:1019D000A4F118060CEB030912F8058011F805C0F4
:1019E000A8EB0C0808FB06F898FBF7F8C44409F8C4
:1019F00005C06D1CEDB2032DEED3641CE4B2352C92
:101A0000E3D3082842D01DE0352404EB440600252A
:101A1000A4F1340706EB0309565D11F805C0A6EBE7
:101A20000C067E434FEAE67806EB58760CEBE606AA
:101A300009F805606D1CEDB2032DEDD3641CE4B212
:101A40003D2CE2D3092842D01DE03D245F4604EB43
:101A5000440C0025A4F13C060CEB030912F80580A8
:101A600011F805C0A8EB0C0808FB06F898FBF7F87E
:101A7000C44409F805C06D1CEDB2032DEED3641CFF
:101A8000E4B2432CE3D30A2842D01DE043244FF0B4
:101A9000130C04EB44070025A4F1420607EB0309ED
:101AA00012F805804F5DA8EB070808FB06F898FBC5
:101AB000FCF8474409F805706D1CEDB2032DEFD317
:101AC000641CE4B2562CE4D30B2842D01DE056240B
:101AD000774604EB440C0025A4F155060CEB0309F2
:101AE00012F8058011F805C0A8EB0C0808FB06F8F1
:101AF00098FBF7F8C44409F805C06D1CEDB2032D3E
:101B0000EED3641CE4B2722CE3D30C2843D01DE066
:101B100072244FF00A0C04EB44070025A4F171066F
:101B200007EB030912F805804F5DA8EB070808FBD7
:101B300006F898FBFCF8474409F805706D1CEDB2F7
:101B4000032DEFD3641CE4B27C2CE4D30D2844D0E5
:101B50001EE07C244FF0160C04EB44070025A4F192
:101B60007B0607EB030900BF12F805804F5DA8EB69
:101B7000070808FB06F898FBFCF8474409F80570CD
:101B80006D1CEDB2032DEFD3641CE4B2922CE3D3B1
:101B90000E2844D01EE092244FF0210C04EB4407A1
:101BA0000025A4F1910607EB030900BF12F8058098
:101BB0004F5DA8EB070808FB06F898FBFCF84744C4
:101BC00009F805706D1CEDB2032DEFD3641CE4B26F
:101BD000B32CE3D30F2865D01EE0B3244FF0050CDF
:101BE00004EB44070025A4F1B20607EB030900BF8C
:101BF00012F805804F5DA8EB070808FB06F898FB74
:101C0000FCF8474409F805706D1CEDB2032DEFD3C5
:101C1000641CE4B2B82CE3D3102862D01EE0B824D0
:101C20004FF0030C04EB44070025A4F1B70607EBC3
:101C3000030900BF12F805804F5DA8EB070808FBF9
:101C400006F898FBFCF8474409F805706D1CEDB2E6
:101C5000032DEFD3641CE4B2BB2CE3D311287FF433
:101C60006EAED720564600EB40070024A0F1D60503
:101C700007EB030C12F804800F5DA8EB070808FBC4
:101C800005F898FBF6F847440CF80470641CE4B2BD
:101C9000032CEFD3401CC0B2E528E4D336E601E0C4
:101CA000360E0020BB20564600EB40070024A0F172
:101CB000BA0507EB030C00BF12F804800F5DA8EB18
:101CC000070808FB05F898FBF6F847440CF8047081
:101CD000641CE4B2032CEFD3401CC0B2C928E3D388
:101CE00014E6C920564600EB40070024A0F1C805C1
:101CF00007EB030C12F804800F5DA8EB070808FB44
:101D000005F898FBF6F847440CF80470641CE4B23C
:101D1000032CEFD3401CC0B2D728E4D3F6E530B58E
:101D200005460124E0B2294600F006F8641CA4B27E
:101D3000122CF7D330BD00002DE9F04FFD4A00EB27
:101D4000400301EB430101280ED0022828D04FF0B8
:101D5000060A4FF01C0B4FF00E0903283AD0042856
:101D600059D005287AD053E00020441C002300EB12
:101D700040008518C81810F8037C10F8066CB81BD2
:101D80006043C71700EB977006EBA000E8545B1C9C
:101D9000DBB2032BEED3E0B20428E6D3BDE8F08F2C
:101DA0000423002003EB4304A6180C1814F8035C6A
:101DB00014F8064C2D1BEF1705EB977504EBA504E3
:101DC0003454401CC0B20328EFD35B1CDBB2052B9C
:101DD000E7D3E3E705235646002403EB43071D1F23
:101DE00007EB020C0F1917F8038C17F8067CA8EB09
:101DF000070808FB05F898FBF6F847440CF8047050
:101E0000641CE4B2032CEDD35B1CDBB20B2BE3D3DD
:101E1000062845D01EE00B234E4603EB4307002463
:101E2000A3F10A0507EB020C0F1917F8038C17F83A
:101E3000067CA8EB070808FB05F898FBF6F8474472
:101E40000CF80470641CE4B2032CEDD35B1CDBB211
:101E5000192BE2D3072845D01FE0FFE719235E4680
:101E600003EB43070024A3F1180507EB020C0F193D
:101E700017F8038C17F8067CA8EB070808FB05F891
:101E800098FBF6F847440CF80470641CE4B2032C89
:101E9000EDD35B1CDBB2352BE2D3082844D01EE027
:101EA000352303EB43050024A3F1340605EB020CB4
:101EB0000F1917F8035C17F8067CED1B75434FEA02
:101EC000E57805EB587507EBE5050CF80450641C44
:101ED000E4B2032CECD35B1CDBB23D2BE1D309282D
:101EE00043D01EE03D23564603EB43070024A3F1F5
:101EF0003C0507EB020C0F1917F8038C17F8067C4A
:101F0000A8EB070808FB05F898FBF6F847440CF81F
:101F10000470641CE4B2032CEDD35B1CDBB2432BD6
:101F2000E2D30A2843D01DE043234FF0130C0024D2
:101F300003EB4306A3F14205B7180E1916F8038CFC
:101F400016F8066CA8EB060808FB05F898FBFCF8E9
:101F500046443E55641CE4B2032CEED35B1CDBB25A
:101F6000562BE4D30B2843D01EE056235E4603EBEA
:101F700043070024A3F1550507EB020C0F1917F8CE
:101F8000038C17F8067CA8EB070808FB05F898FBFC
:101F9000F6F847440CF80470641CE4B2032CEDD34B
:101FA0005B1CDBB2722BE2D30C2842D01DE0722303
:101FB0004FF00A0C002403EB4306A3F17105B71898
:101FC0000E1916F8038C16F8066CA8EB060808FB29
:101FD00005F898FBFCF846443E55641CE4B2032C1B
:101FE000EED35B1CDBB27C2BE4D30D2842D01DE08A
:101FF0007C234FF0160C002403EB4306A3F17B0572
:10200000B7180E1916F8038C16F8066CA8EB06081C
:1020100008FB05F898FBFCF846443E55641CE4B206
:10202000032CEED35B1CDBB2922BE4D30E2842D000
:102030001DE092234FF0210C002403EB4306A3F193
:102040009105B7180E1916F8038C16F8066CA8EB54
:10205000060808FB05F898FBFCF846443E55641C4E
:10206000E4B2032CEED35B1CDBB2B32BE4D30F281A
:1020700062D01DE0B3234FF0050C002403EB4306B0
:10208000A3F1B205B7180E1916F8038C16F8066CF2
:10209000A8EB060808FB05F898FBFCF846443E55FB
:1020A000641CE4B2032CEED35B1CDBB2B82BE4D38C
:1020B00010285FD01DE0B8234FF0030C002403EB81
:1020C0004306A3F1B705B7180E1916F8038C16F8D6
:1020D000066CA8EB060808FB05F898FBFCF84644DC
:1020E0003E55641CE4B2032CEED35B1CDBB2BB2B6D
:1020F000E4D311287FF46DAED7204E46002300EBC9
:102100004005A0F1D604AF18CD1815F803CC15F88A
:10211000065CACEB050C0CFB04FC9CFBF6FC65447C
:10212000FD545B1CDBB2032BEED3401CC0B2E52890
:10213000E4D333E6360E0020BB204E46002300EBEE
:102140004005A0F1BA04AF18CD1815F803CC15F866
:10215000065CACEB050C0CFB04FC9CFBF6FC65443C
:10216000FD545B1CDBB2032BEED3401CC0B2C9286C
:10217000E4D313E6C9204E46002300EB4005A0F14E
:10218000C804AF18CD1815F803CC15F8065CACEBF5
:10219000050C0CFB04FC9CFBF6FC6544FD545B1C2D
:1021A000DBB2032BEED3401CC0B2D728E4D3F5E555
:1021B0007047000006490020C8610648016941F0E7
:1021C00004010161016941F04001016170470000B3
:1021D0001803002000200240064A0021D161064970
:1021E0000A6942F002020A614861086940F0400051
:1021F000086170471803002000200240044B0022B1
:10220000DA61044A136943F00103136101807047E6
:10221000180300200020024014480022C168CB06A9
:10222000134904D5CA6942F00202CA611022C36888
:102230005B0705D5CB6943F00103CB6142F0040293
:10224000C369DB0707D0CB6943F00403CB61C169E5
:1022500021F00101C161A2F58071013901D0C26094
:102260007047C16921F00101C1617047002002403F
:102270001803002070B5054600F076FC0646114CA8
:1022800009E0681C07D025B100F06EFC801BA84255
:1022900001D9032070BDE068C007F2D1E068800674
:1022A00001D52020E060E068C00605D4E069C007E1
:1022B00002D1E068400703D5FFF7AEFF012070BDF3
:1022C000002070BD002002402DE9F04700244FF0AF
:1022D0003D09224B4FF01D0A3CE000BF204E04EBAD
:1022E00044029119B75C4D788E78002101E00829ED
:1022F0000CD25FEA056C01EBC20802D523F81890F6
:1023000001E023F818A06D062D0E1DE0A1F1080CC8
:10231000BCF1080F0CD25FEA076C01EBC20802D5D2
:1023200023F8189001E023F818A07F063F0E0BE079
:102330005FEA066C01EBC20802D523F8189001E0B1
:1023400023F818A07606360E491C89B21829CED378
:10235000641CA4B28442C1D3BDE8F08736110020CA
:10236000360E00202DE9FF4F83B089460446DDF884
:1023700040B0009097E080283AD20D2804D0202861
:1023800008D9203880B206E009F110001FFA80F960
:10239000009C2AE00020DFF820A100264FF08008F2
:1023A00001900198002506EB001700BF1AF80710EE
:1023B00028FA05F0014204D009EB06016019059ADC
:1023C00007E0DDE90501884205D009EB0601601947
:1023D000069A00F075F86D1CEDB2082DE6D3761C58
:1023E000F6B2102EDDD30834A4B20BF1010B5AE083
:1023F0004FF00008314808EB08119BF8002010F856
:102400001130934244D100EB4100019041789BF898
:10241000010081423CD100254FF0800A019800263E
:1024200000EB45072AFA06F0B978014204D009EB1F
:102430000501A019059A07E0DDE90501884205D0EC
:1024400009EB0501A019069A00F03AF8761CF6B2DD
:10245000082EE7D30026F9782AFA06F0014204D0C4
:1024600009EB0501A019059A07E0DDE9050188429D
:1024700006D0069A09EB0501A019083000F020F8F3
:10248000761CF6B2082EE6D36D1CEDB2102DC5D326
:1024900008F101001FFA80F8B8F1320FAAD3103406
:1024A0000BF1020BA4B29BF8000000287FF463AF8D
:1024B00007B0BDE8F08F0000C89800083AA60008F1
:1024C00010B514464A1C93B2421C92B202F0C2FAF2
:1024D0002046BDE8104002F091B901680A6822F078
:1024E0000E020A6001680A6822F001020A6090F890
:1024F0004020C36B012101FA02F25A6080F82110DA
:10250000002180F8201008467047000010B590F8B0
:1025100021100024022903D00421816301243DE01D
:1025200001680A6822F00E020A6001680A6822F057
:1025300001020A601A4A0168914201D1012121E099
:10254000174A1432914201D110211BE0144A28325B
:10255000914201D1891515E0114A3C32914201D1D5
:1025600089140FE00E4A5032914202D14FF480316B
:1025700008E00B4A6432914202D14FF4801101E02D
:102580004FF08071064A083A5160012180F821100D
:10259000002180F82010416B01B18847204610BD12
:1025A000080002402DE9F05FC16B0C6801680B6800
:1025B000D0F840C0042202FA0CF2494DDFF824A101
:1025C000494E4A4FDFF828B1DFF828E122422CD0EB
:1025D0005A072AD50A68920603D40A6822F0040230
:1025E0000A600168A94201D1042219E0514501D1D4
:1025F000402215E0B14202D14FF4806210E0B942AE
:1026000002D14FF480420BE0594502D14FF48022B1
:1026100006E0714502D14FF4800201E04FF0806284
:102620002F4908394A60C16A3BE04FF0020808FAB6
:102630000CF818EA040F4FF000094FF0010235D0F2
:102640005FEA837832D50B689B0605D40B6823F0CC
:102650000A030B6080F821200168A94201D10222FF
:1026600019E0514501D1202215E0B14202D14FF4C9
:10267000007210E0B94202D14FF400520BE059450C
:1026800002D14FF4003206E0714502D14FF400123E
:1026900001E04FF00072124908394A6080F820903A
:1026A000816A00291AD0BDE8F05F0847082505FABD
:1026B0000CF5254212D01B0710D50B6823F00E0332
:1026C0000B6090F84010C36B02FA01F1596082630D
:1026D00080F8212080F82090016BE2E7BDE8F09FB0
:1026E000080002401C00024030000240440002404A
:1026F000580002406C00024030B548B308C8154984
:1027000014221944B1FBF2F18900C16312498163BB
:10271000022141771A6843F6F0718A43D0E9001428
:102720002143D0E902452C432143046921434469F4
:102730002143846921431143196000214162816270
:10274000C16201634163012242770177084630BDCF
:10275000012030BDF8FFFDBF0000024010B590F829
:1027600020400023012C07D0012480F8204090F85D
:102770002140012C02D008E0022010BD59B10129EE
:102780000BD002290BD003290BD00123002180F8A4
:102790002010184610BD8262F8E7C262F6E70263B5
:1027A000F4E74263F2E770B5044690F82000002594
:1027B00001280CD0012084F8200094F8216000202A
:1027C000012E06D084F820000225284670BD022084
:1027D00070BD022684F82160A0632068066826F098
:1027E000010606602046FEF749FAE06A00282068E4
:1027F000016802D041F00E0106E021F00401016001
:102800002068016841F00A0101602068016841F018
:1028100001010160D9E7000070B5044600F0A4F999
:102820000546601C02D004480078044400F09CF97E
:10283000401BA042FAD370BD000000202DE9F047F4
:10284000054626480F460126017E01290FD00121A9
:10285000814601762868DFF888804CF250340228DF
:1028600008D0A2462046FFF705FDA8B131E00220BE
:10287000BDE8F0872046FFF7FDFC08BB0120FFF70D
:1028800099FC2046FFF7F6FCD8F81010064621F018
:102890000401C8F810101CE04FF0FF303860AC683D
:1028A00011E02046FFF798FC5046FFF7E3FCD8F80C
:1028B0001010060021F00201C8F8101001D03C6091
:1028C00007E004F58064D5E9020100EB8120A04215
:1028D000E7D8002189F818103046C9E7180300200E
:1028E000002002400348016941F08001016100209D
:1028F00070470000002002402DE9F05F07461C48A9
:1029000088460024017E15461E46012909D0012172
:10291000814601764CF2503A5046FFF7ABFC18B1B5
:1029200022E00220BDE8F09F012F02D0022F00D04C
:102930000427D346DFF83CA0220128463146FDF7A4
:102940003DFC81B208EB4400FFF758FC5846FFF706
:1029500091FCDAF8102022F00102CAF8102018B910
:10296000641CE4B2BC42E7D3002289F81820D9E7FE
:102970001803002000200240064900200A691206C0
:1029800007D5054A4A60054A4A600969090600D523
:10299000012070470020024023016745AB89EFCD3D
:1029A0002DE9F84FDFF890A100220AF1040B14463C
:1029B00001274FF00F090BF1040E00BF0B6807FA57
:1029C00004F52B40AB4274D1DFF870C14E68A6EB22
:1029D0000C0866452BD00DDC032E34D005DC36B355
:1029E000012E19D0022E2FD11BE0112E16D0122E3F
:1029F0002AD119E0B8F5881F19D006DCB8F5803F58
:102A000015D0B8F5801F1FD111E0B8F5001F0ED00A
:102A1000B8F5041F18D10AE0CA6815E0CA68121D8B
:102A200012E0CA6808320FE0CA680C320CE08A680B
:102A30002AB1012A4FF0080203D0456104E00422C4
:102A400002E0056100E00022FF2B01D8064601E00C
:102A500000F104064FEA840501D9A5F12005D6F856
:102A600000C009FA05F82CEA080C02FA05F54CEA50
:102A7000050CC6F800C04D68ED0057D5304DAE6965
:102A800046F00106AE61AD6924F0030605F00105CC
:102A900000952C4D06EB050CDCF80850A6074FEA14
:102AA000167809FA08F6B543274EB04202D100263F
:102AB00010E03BE0254EB04201D101260AE0244E51
:102AC000B04201D1022605E0224EB04201D10326D8
:102AD00000E0042606FA08F62E43CCF808604D689C
:102AE000DAF80060ED03554601D51E4300E09E4331
:102AF0002E604D68DBF80060AD035D4601D51E43D6
:102B000000E09E432E604D68DEF80060ED027546E1
:102B100001D51E4300E09E432E604D68AD020E4D70
:102B20002E6801D51E4300E09E432E60641C102CCD
:102B3000FFF444AFBDE8F88F00040140000011101D
:102B4000001002400000014000080140000C01405C
:102B500000100140001401400C0401400AB1016161
:102B600070470904FBE700000148806870470000D7
:102B7000000000200248816802781144816070479B
:102B800000000020074810B5016841F01001016005
:102B9000032000F095F80F2000F006F800F024F86C
:102BA000002010BD0020024070B50D4D04464FF4CA
:102BB0007A712878B1FBF0F00A490968B1FBF0F0AE
:102BC00000F026FF48B9102C07D200222146501EE3
:102BD00000F056F800206C6070BD012070BD000050
:102BE00000000020180000201D4808B5816941F050
:102BF00001018161806900F001000090032000F074
:102C00005FF8002211466FF00B0000F039F8002247
:102C100011466FF00A0000F033F8002211466FF001
:102C2000090000F02DF800221146501F00F028F88E
:102C300000221146101F00F023F800220F21901EE1
:102C400000F01EF800220F21501E00F019F8054870
:102C5000416821F0E06141F00071416008BD000071
:102C6000001002400000014000F01F0201219140CD
:102C70004009800000F1E020C0F80011704700001A
:102C8000F0B40E4B1B680C46C3F30223C3F10705D7
:102C9000042D00D90425191D072901D2002300E0C5
:102CA000DB1E012606FA05F1491E214099409E408F
:102CB000761E16403143F0BC02F0DFB80CED00E0A8
:102CC000064900F0070208684FF6FF03184040EA83
:102CD0000220034A10430860704700000CED00E03A
:102CE0000000FA05014901200862704700000E4209
:102CF00010B529A401461DCC86B08DE81D002AA080
:102D00002A4C006804900020012923D002293AD0DF
:102D100010291DD161682268D20119D5C1F38342FF
:102D2000C9031DF8020009D5616804AAC1F3404136
:102D3000515C1F4AB2FBF1F1484301E01D49484391
:102D40006168490204D440005FF00301B0FBF1F078
:102D500006B010BD226AC2F30121012903D19207F6
:102D600001D5C803F4E7022905D1626A920702D5AA
:102D700049F64040ECE70329EAD121688903E7D509
:102D80004FF22440E4E700F055F96168C1F3813166
:102D9000491C4900DAE70000020304050607080998
:102DA0000A0B0C0D0E0F1010010200000010024063
:102DB00000127A0000093D002DE9F843054600782D
:102DC000354CC00754D0E0690026C00008D4E06943
:102DD00040F08050E061E069012600F080500090F2
:102DE0002E480168C90512D40168804641F48071FB
:102DF0000160FFF7B9FE074605E000BFFFF7B4FE2C
:102E0000C01B642823D8D8F80000C005F6D5206A76
:102E100010F4407021D0A98801F4407181421CD087
:102E2000206A1F49012220F440700A6000220A60D3
:102E30002062C00711D0FFF797FE074641F288389D
:102E400008E000BFFFF790FEC11B414502D90320F7
:102E5000BDE8F883206A8007F4D5206A696820F409
:102E60004070084320621EB1E06920F08050E061AC
:102E70002878800705D56068A96820F44040084399
:102E800060602878C00605D56068E96820F4800095
:102E9000084360600020DBE7001002400070004043
:102EA00040044242704700002DE9F047DFF83C81C2
:102EB00005460E46D8F8000000F00700B0420CD2DC
:102EC000D8F8001021F007013143C8F80010D8F8F5
:102ED000000000F00700B04263D12878444C80071E
:102EE00005D56068A96820F0F00008436060287884
:102EF000C00745D06868012816D02168022816D07E
:102F0000890700294DDA616821F0030101436160FE
:102F1000FFF72AFE6968074641F2883001290FD081
:102F20000229814619D027E021688903E9E7890150
:102F3000E7E700BFFFF718FEC11B494501D918E0BC
:102F400081466068C0F381000128F3D118E000BF1A
:102F5000FFF70AFEC11B49450BD86068C0F381002A
:102F60000228F5D10CE000BFFFF7FEFDC11B49456B
:102F700002D90320BDE8F087606810F00C0FF3D190
:102F8000D8F80010404601F00701B1420BD90168A2
:102F900021F0070131430160006800F00700B042F2
:102FA00001D00120E6E72878400705D56068E96888
:102FB00020F4E060084360602878000706D5606868
:102FC000296920F4605040EAC100606000F042F8D6
:102FD0006168084AC1F30311515CC84006490860A2
:102FE0000F20FFF7E1FD0020C4E7000000200240B1
:102FF00000100240B098000818000020014901208C
:10300000C8647047000042420148006870470000F1
:10301000180000200448054900684968044AC1F3C3
:103020000221515CC8407047180000200010024087
:10303000C09800080448054900684968044AC1F37B
:10304000C221515CC84070471800002000100240A7
:10305000C098000812A185B00FC98DE80F0014A018
:10306000144A006804905168134801F00C03042BC3
:1030700010D0082B0ED1C1F38343C9031DF8030000
:103080000AD5516804AAC1F34041515C0A4A504331
:10309000B0FBF1F005B0704708494843FAE700007B
:1030A00002030405060708090A0B0C0D0E0F101089
:1030B000010200000010024000127A0000093D00E9
:1030C00010B5044CA068000603D5FFF7EBFE802086
:1030D000A07210BD001002402DE9F84F04460078A0
:1030E000B94DC00748D06868C0F38100012807D0F7
:1030F0006868C0F38100022809D16868C00306D55A
:103100002868800338D5606800286FD034E0606894
:10311000B0F5803F0BD010B1B0F5A02F11D02868CA
:1031200020F480302860286820F4802002E028689D
:1031300040F480302860606888B1FFF715FD0646CE
:1031400009E0286840F480202860F0E7FFF70CFDD4
:10315000801B642875D828688003F7D50CE0FFF73A
:1031600003FD064605E000BFFFF7FEFC801B642858
:10317000F0D828688003F7D42078944E80074FF069
:1031800001094FF000083BD5686810F00C0F07D01C
:103190006868C0F38100022809D16868C00306D4BA
:1031A0002868800714D5206901281FD110E0206904
:1031B000B0B1C6F80090FFF7D7FC074605E000BFA6
:1031C000FFF7D2FCC01B0228C4D828688007F7D5B7
:1031D0002868616920F0F80040EAC10028600FE02B
:1031E000C6F80080FFF7C0FC074606E0E9E000BF34
:1031F000FFF7BAFCC01B022823D828688007F7D441
:10320000207800072CD57248A169D9B1C0F8009088
:10321000FFF7AAFC074604E0FFF7A6FCC01B022844
:103220000FD8686A8007F7D56A484FF4FA510068EA
:10323000B0FBF1F0009000BF0098411E0091FAD25F
:103240000EE080E0C0F80080FFF78EFC074604E047
:10325000FFF78AFCC01B022875D8686A8007F7D47C
:103260002078400760D5E8690027C00008D4E869E5
:1032700040F08050E861E869012700F0805000903C
:1032800055480168C90513D40168834641F480712B
:103290000160FFF769FC824606E000BFFFF764FCAF
:1032A000A0EB0A0064284ED8DBF80000C005F5D575
:1032B000E06801280AD008B1052813D0286A20F058
:1032C00001002862286A20F0040002E0286A40F029
:1032D00001002862E06841F2883B98B1FFF744FCA6
:1032E00082460BE0286A40F004002862EEE700BF47
:1032F000FFF73AFCA0EB0A0159455AD8286A800723
:10330000F6D50CE0FFF730FC824605E0FFF72CFC19
:10331000A0EB0A0159454CD8286A8007F6D41FB1A2
:10332000E86920F08050E861E06988B36968C1F31A
:103330008101022945D00228C6F8608004D0FFF739
:1033400013FC044638E034E0FFF70EFC074604E0C7
:10335000FFF70AFCC01B02282BD828688001F7D48D
:10336000206AB0F5803F05D16868A16820F400307C
:1033700008436860D4E908010843696821F47411BE
:1033800008436860C6F86090FFF7EEFB044606E06D
:1033900015E000BFFFF7E8FB001B022809D82868EA
:1033A0008001F7D50BE000BFFFF7DEFB001B022812
:1033B00002D90320BDE8F88F28688001F4D40020EA
:1033C000F8E70120F6E7000000100240000042424A
:1033D000800442421800002000700040024850F86B
:1033E000210080B270470000006C0040024800EBF2
:1033F000810091B201607047006C0040F8B5050093
:103400004FF0000016460C46009006D02CB100226A
:103410006946284600F02EF808B10120F8BD287B47
:103420002070E87BE070687B6070A87BA070022150
:103430002846FFF7D3FFE07003212846FFF7CEFFB1
:10344000607004212846FFF7C9FFA07005212846B7
:10345000FFF7C4FF20705EB1E07801F027FDE07057
:10346000607801F023FD6070A07801F01FFDA0706E
:103470000020F8BD2DE9F04791460C465FEA0008B0
:103480004AD084B3D8F800004068400744D440468E
:1034900001F0CAFD4FF461620546B0FBF2F1B0FBEA
:1034A000F2F302FB13503C23B0FBF3F0B5FBF2F652
:1034B000607002FB1650B0FBF3F203FB1200A07029
:1034C000182931D31820B1FBF0F7B1FBF0F200FB63
:1034D00012102070404601F0A0FD411C04D0A8420B
:1034E00002D9461B02E017E04FF0FF36A7EB0710AA
:1034F00000EB4000C0EB001005EBC015294640462C
:1035000001F0E1FD40B9701C01D0711900E03146B5
:10351000404601F0C4FD10B10120BDE8F0873946F6
:10352000404601F0CEFC00E02170B9F1000F0BD055
:10353000207801F0BBFC2070607801F0B7FC60706F
:10354000A07801F0B3FCA0700020E6E770B504009D
:1035500003D0607C002610B105E0012070BD267408
:10356000204600F043F802206074204600F010F975
:10357000042578BB204601F01AFD58BB206841683D
:1035800021F007014160A06820B11748016821F0CF
:10359000010101601448001F0168A26821F46071F4
:1035A000114301606068411C04D10120FFF7A0FBBA
:1035B00080B1401E21688A6822F00F0242EA104260
:1035C0008A602168CA6860F30F02CA60204601F071
:1035D00009FD08B16574C0E7E67301206073A0734C
:1035E0006074002070BD0000306C004008B50068B9
:1035F000084988420DD1FFF775FB0748C16941F0C2
:103600000061C161C069054900F0006000900120BF
:10361000086008BD00280040001002403C044242FF
:103620002DE9F0410D4604003BD0C5B3207C0128B4
:103630003AD04FF0010884F8108002206074E878D6
:1036400072B301F02AFCE073687801F026FC607325
:10365000A87801F022FCA073C2B2617BE07B01F08C
:10366000F3FC20732870204601F0DEFC4FF461610A
:10367000B0FBF1F1002518292DD91822B1FBF2F188
:10368000A1EB011101EB4101C1EB011100EBC116EE
:103690003146204601F017FD0427C8B90BE000E0D1
:1036A00004E00120BDE8F0810220FBE7E0736878C8
:1036B0006073A878CFE7204601F0AFFC411C0AD028
:1036C000B04208D206490144204601F0E8FC10B19E
:1036D00067742574E5E784F8118025740020E1E71C
:1036E000805101002DE9F0410D46040024D01DB3A6
:1036F000207C012823D04FF0010884F8108002209C
:1037000060742878EAB101F0C8FB4FF4616100FBF6
:1037100001F6687801F0C1FBC0EB001006EB8006F3
:10372000A87801F0BAFB35182946204601F0CBFCF9
:103730000026042710BB0FE00120BDE8F081022025
:10374000FBE74FF4616148436978C1EB011100EB7D
:103750008100A9784518E7E72068416821F0050154
:103760004160204601F059FC411C0AD0A84208D211
:1037700006490144204601F092FC10B1677426749A
:10378000DAE784F8118026740020D6E78051010022
:1037900070B504000AD02068416821F0080141603A
:1037A000FFF7E2F905464FF47A7608E0012070BD94
:1037B000FFF7DAF9401BB04201D9032070BD206841
:1037C00040680007F4D5002070BD70B5040005D036
:1037D0000025A56294F8510010B104E0012070BDED
:1037E000204600F033F8022084F851002068016878
:1037F00021F040010160D4E901010843D4E903123A
:103800001143084361690843218B01F400710843A7
:10381000E1690843216A0843A16A084321680860F6
:10382000A069042101EA1040616A084321684860E8
:103830002168E06A08612068C16921F40061C16102
:103840006565012084F85100002070BD00B5006856
:103850000C4985B0884212D10B48816941F48051EE
:1038600081618069694600F480500490A020009036
:1038700002200190032003900448FFF791F805B05F
:1038800000BD00000030014000100240000801406F
:103890002DE9F84F044690F8500000269946174647
:1038A0000D4601280DD04FF0010B84F850B0FFF702
:1038B0005BF9804694F85100B246012804D00226F4
:1038C00094E00220BDE8F88F002D7BD0002F79D046
:1038D000032084F85100C4F854A02563A786E78626
:1038E000C4F838A0A4F83CA0A4F83EA0C4F844A0B2
:1038F000C4F840A0A068B0F5004F04D1206801686A
:1039000041F48041016020680168490603D40168E0
:1039100041F040010160E068B0F5006F606804D0DC
:1039200030B3E08E012823D03EE010B1E08E0128B4
:103930001AD135F8021B206805E0206881688907E4
:1039400006D535F8021BC160E08E401EE0860BE014
:10395000B9F1000F34D0B9F1FF3F05D0FFF704F9FA
:10396000A0EB080149452BD2E08E0028E5D11EE0EE
:10397000216815F8010B087306E020688168890743
:1039800006D515F8011B0173E08E401EE0860BE0A2
:10399000B9F1000F14D0B9F1FF3F05D0FFF7E4F8FB
:1039A000A0EB080149450BD2E08E0028E5D14B463B
:1039B000012202212046CDF8008001F0E3FB10B186
:1039C000032613E011E042464946204601F0CAFBB7
:1039D00018B101262020606508E0A06818B92068A9
:1039E000C16880680090606D00B1012684F851B014
:1039F00084F850A0304665E74FF0E02104280869BC
:103A000003D020F004000861704740F00400FAE79A
:103A100010B5401EB0F1807F01D3012010BD4FF0E2
:103A2000E02460610F21601701F027FA0020A061F7
:103A300007202061002010BD7047704730B590F816
:103A40003C20012A20D0012280F83C20022380F86B
:103A50003D3003685C6824F070045C6003685C6857
:103A60000D682C435C6003689C6824F080049C60B3
:103A700003689C6849680C439C6080F83D200021E5
:103A800080F83C10084630BD022030BD10B504005F
:103A900003D094F83D0010B107E0012010BD0020D4
:103AA00084F83C00204600F00DF8022084F83D0028
:103AB000211D206801F0D4FD012084F83D00002084
:103AC00010BD000038B505460068B0F1804F2BD11D
:103AD0001648C16941F00101C161C069154C00F08F
:103AE00001000090124820601020606000208021BA
:103AF000C4E90201490021618900C4E90510E061BF
:103B00002046FEF7F9FD18B1D4210BA003F0A2FD69
:103B10006C62002205211C206562FFF7B1F8BDE848
:103B200038401C20FFF7A0B838BD0000001002404C
:103B300058000240E40300202E2E2F5372632F738F
:103B4000746D3332663178785F68616C5F6D737065
:103B50002E63000070B5044690F83C00012817D091
:103B6000012584F83C50022084F83D0020688268DA
:103B700022F0770222F47F4282600868502837D012
:103B80000DDC202859D005DC88B3102841D151E044
:103B9000022070BD302853D040283AD13FE0602841
:103BA0002ED070280BD0B0F5805F03D0B0F5005F49
:103BB0002FD110E02068816821F0070115E0CB6863
:103BC000D1E90121206801F0B3FD2168886840F047
:103BD000770088601DE0CB68D1E90121206801F001
:103BE000A7FD2068816841F48041816011E01EE0FA
:103BF000CA684968206801F04FFE5021206806E03D
:103C0000CA684968206801F058FE6021206801F008
:103C100099FD84F83D50002084F83C0070BDCA68CE
:103C20004968206801F038FE40212068EFE7002154
:103C30002068ECE710212068E9E720212068E6E70A
:103C400030212068E3E77047704770B5044600688C
:103C500001694FF00005C943890715D4C168C943FC
:103C6000890711D4E91E016101202077206880694D
:103C70008007204602D0FFF7E7FF04E000F0AAF833
:103C8000204600F02CF9257720680169C9434907CF
:103C900017D4C168C943490713D46FF00401016107
:103CA000022020772068806910F4407F204602D0EF
:103CB000FFF7CAFF04E000F08DF8204600F00FF98E
:103CC000257720680169C943090716D4C168C9432B
:103CD000090712D46FF008010161042020772068E1
:103CE000C0698007204602D0FFF7AEFF04E000F075
:103CF00071F8204600F0F3F8257720680169C94380
:103D0000C90617D4C168C943C90613D46FF010019E
:103D10000161082020772068C06910F4407F2046A8
:103D200002D0FFF791FF04E000F054F8204600F0C5
:103D3000D6F8257720680169C943C90708D1C16849
:103D4000C943C90704D1891E0161204600F07CF9EE
:103D500020680169C943090609D4C168C943090635
:103D600005D46FF0800101612046FFF765FE2068F1
:103D70000169C943490609D4C168C943490605D444
:103D80006FF040010161204600F05FF92068016991
:103D9000C94389060BD4C168C943890607D46FF0AB
:103DA000200101612046BDE87040FFF746BE70BDAE
:103DB0001FB50068B0F1804F08D1012000900220AB
:103DC0000190039069460248FEF7EAFD1FBD00001E
:103DD00000080140704770B5044690F83C000D465D
:103DE00001280DD0012684F83C60022084F83D00B3
:103DF00042B1042A18D0082A2AD00C2A4DD139E021
:103E0000022070BD206801F0A5FC2068816941F0A6
:103E1000080181612068816921F0040181612068C5
:103E200081692A69114311E0206801F0BBFC206818
:103E3000816941F4006181612068816921F48061B8
:103E40008161206881692A6941EA0221816124E057
:103E5000206801F0D3FC2068C16941F00801C1610C
:103E60002068C16921F00401C1612068C1692A6923
:103E7000114311E0206801F0EDFC2068C16941F4B4
:103E80000061C1612068C16921F48061C16120685D
:103E9000C1692A6941EA0221C16184F83D600020BC
:103EA00084F83C0070BD10B5040003D094F83D00C8
:103EB00010B107E0012010BD002084F83C0020462E
:103EC00000F00CF8022084F83D00211D206801F06C
:103ED000C7FB012084F83D00002010BD70477047EB
:103EE00070B5044690F83D0016460D46022805D0F0
:103EF00094F83D00012805D10EB903B170BD022030
:103F000084F83D002C482D4935B1042D13D0082DDF
:103F100034D00C2D1ED140E0626A9062606A016369
:103F2000226831463432606AFEF73DFC2068C16881
:103F300041F400710DE0A26A9062A06A01632268F8
:103F400031463832A06AFEF72EFC2068C16841F481
:103F50008061C16001222946206801F0B7FB184941
:103F60002068884203D1416C41F4004141642068DB
:103F7000016841F001010160002070BDE26A9062B9
:103F8000E06A0163226831463C32E06AFEF70BFCCE
:103F90002068C16841F40061DBE7226B9062206B0E
:103FA0000163226831464032206BFEF7FCFB20683B
:103FB000C16841F48051CCE7E3560008215700085E
:103FC000002C014010B50268044631B1042908D024
:103FD00008292FD00C2908D130E0D06820F40070D7
:103FE00002E0D06820F48060D0600022206801F0F8
:103FF0006DFB144B41F2111120688A10984209D1CF
:10400000036A0B4206D1036A134203D1436C23F4C3
:10401000004343642068036A0B4206D1016A1142DF
:1040200003D1016821F001010160012084F83D0005
:10403000002010BDD06820F40060D5E7D06820F4DF
:104040008050D1E7002C01407047704710B50446FE
:104050000068416994F83920C1F3C011212A0BD1BD
:1040600051B1416921F080014161206B08B1FEF737
:1040700034FA204601F0ADFC2068416994F83A20FA
:10408000C1F38011222A0BD151B1416921F04001C5
:104090004161606B08B1FEF720FA204601F08BFC0D
:1040A000002010BD7047000070B50268044610681B
:1040B000D168536910F00F0F50D003F0010501F4DF
:1040C000907635435DD0C20705D0CA0503D5E26BB3
:1040D00042F00102E263420705D5DA0703D0E26B42
:1040E00042F00202E263820705D5DA0703D0E26BF1
:1040F00042F00402E263020705D5DA0703D0E26B5F
:1041000042F00802E263E26B002A33D0800604D555
:10411000880602D5204601F065FC20684069E16B05
:10412000C0F38010090700D428B3204601F043FCF7
:104130002068416949061AD5416921F04001416171
:10414000606BA0B11B494163606BFEF7DFF900288B
:1041500010D0606B416BBDE870400847830610D5F6
:104160008B060ED52046BDE8704001F03BBC2046D2
:10417000FFF798FF70BD2046FFF794FF0020E06333
:1041800070BD030606D50B0604D52046BDE8704079
:1041900001F02CBD4006F3D54806F1D5D168204684
:1041A00021F04001D160202184F8391000F0D2F9CB
:1041B00070BD0000DF58000870B5040004D094F80A
:1041C0003900002510B106E0012070BD84F8385098
:1041D000204600F023F8242084F839002068C168C4
:1041E00021F40051C160204601F048FC20680169BB
:1041F00021F4904101612068416921F02A01416167
:104200002068C16841F40051C160E563202084F852
:10421000390084F83A00002070BD0000F0B5064671
:1042200003684748DFF814C102210322454D0715F2
:10423000002485B0634512D1836943F480438361D0
:104240008069039200F4804004900802CDE90001E7
:1042500069462846FEF7A4FBCDE9007416E0DFF8B6
:10426000E8C0634519D1C36943F40033C361C06931
:10427000039200F4003004900420CDE90001694667
:104280002846FEF78DFB0820CDE900046946284644
:104290000294FEF785FB05B0F0BD2C4DAB42FAD180
:1042A000C36943F48023C361C069CDE9007100F4A0
:1042B0008020CDE90320264D69462846FEF770FB95
:1042C000E814CDE90004694628460294FEF768FB2D
:1042D000214D20488027C5E90004C5E902472C612B
:1042E0006C61AC612846EC61FEF706FA20B14FF430
:1042F000B7711AA003F0AEF975636E6215481E4DD2
:10430000143801C5102091C51B4845F810496C614F
:10431000AC61EC61FEF7F0F920B14FF4BF710FA072
:1043200003F098F935630022052127206E62FEF71D
:10433000A7FC2720FEF798FCADE7000000380140FD
:1043400000100240000801400044004000480040C6
:10435000000C014030000240E80400202E2E2F53B4
:1043600072632F73746D3332663178785F68616C75
:104370005F6D73702E6300002C050020F8B50446B5
:1043800090F83A0020283CD1C1B3BAB394F8380071
:10439000012836D0012084F83800A162A2850025CA
:1043A000E563222084F83A00636B17489862636BD8
:1043B0001648D862636B16481863606B13464563F2
:1043C0000846666B216802463046091DFEF7EBF988
:1043D000206801684168009184F83850C16841F450
:1043E0008071C1602068416941F00101416120682C
:1043F000416941F0400141610020F8BDFFE7012023
:10440000FBE70220F9E70000395900087559000858
:10441000EF580008704770472DE9F843044690F8BC
:1044200039001F4616460D46202850D1A5B19EB131
:1044300094F8380001284AD0012084F838004FF061
:104440000008C4F83C80212084F83900FEF78CFB7A
:10445000A6848146E68426E00120BDE8F883E08C4E
:10446000401EE084A0684B46B0F5805F4FF000022C
:104470004FF080012046009703D001F0E8FBE8B937
:104480000DE001F0E4FBC8B928882168C0F30800FA
:104490004860206908B16D1C05E0AD1C03E021688F
:1044A00015F8010B4860E08C0028D8D14B4600225B
:1044B00040212046009701F0CAFB08B10320CCE759
:1044C000202084F8390084F838800020C5E70220D5
:1044D000C3E7000070B5044690F83900202830D1B9
:1044E00069B362B394F8380001282AD0012084F817
:1044F00038002162A284E2840025E563212084F84B
:104500003900236B10489862236B1048D862236BE4
:104510000F481863206B134645632668206B321DD5
:10452000FEF741F921686FF04000086084F83850C8
:104530002068416941F080014161002070BD012087
:1045400070BD022070BD00007F590008AD59000801
:10455000EF580008704770472DE9F05F0646DDE927
:104560000A453348994690460F4682460346DFF88F
:10457000C4B0002220462946FCF7D6F84FF00002CE
:1045800005D2534620462946FBF77AFF0BE000236D
:1045900020462946FCF7B0F807D2002253462046B1
:1045A0002946FBF7CCFE04460D4600225B4620461A
:1045B0002946FCF7A1F808D242464B463046394618
:1045C000FBF761FF22462B4623E000221A4B2046D0
:1045D0002946FCF791F803D240464946BDE8F09FD2
:1045E000DFF858A00022534620462946FCF784F8FD
:1045F0001BD222462B4600205146FBF741FF0546C1
:104600000C4642464B4630463946FBF73CFF2A46AD
:104610002346FBF73BFF00225B46FBF7A9FF324630
:104620003B46BDE8F05FFBF78ABE30463946D5E72A
:104630000080764000004E400080664000006E40E2
:104640002DE9FF4F87B06849DDE914ABDDE9168934
:104650001A98644C00EB400003900844029000223A
:10466000624B40464946FCF747F80AD2DDE918019B
:1046700000222346FBF763FE42464B46FBF706FF4C
:104680000DE0DDE9182300202146FBF7F9FE424644
:104690004B46FBF7FBFEDDE91823FBF750FE044613
:1046A0000D46012240464946FBF7D1FF22462B46E4
:1046B000FBF7E6FE06460F46DDE918010022134629
:1046C000FCF71AF84FF0000217D1494B4046494613
:1046D000FBF7DCFEFBF7E4FFC1B209980170089814
:1046E0000170079801700020029A1154401C80B29A
:1046F0000328F9D30BB0BDE8F08FDFF8F8805046FF
:1047000043465946FBF71BFE81460591CDE90091D2
:1047100022462B4630463946FFF71EFF0022344B17
:10472000FBF7B4FEFBF7BCFF079922462B46087047
:1047300030463946CDE900ABFFF70EFF00222C4B87
:10474000FBF7A4FEFBF7ACFF089900224346087074
:1047500050465946FBF794FE8046CDE9008104910E
:1047600022462B4630463946FFF7F6FE0022204B04
:10477000FBF78CFEFBF794FF099922462B46087045
:1047800005993046CDE900913946FFF7E5FE002254
:10479000174BFBF77BFEFBF783FF1349039A2B466E
:1047A0008854224630463946CDE900ABFFF7D4FEA7
:1047B00000220F4BFBF76AFEFBF772FF02992246BD
:1047C0002B46487004993046CDE900813946FFF701
:1047D000C3FE0022064BFBF759FEFBF761FF02996F
:1047E000887087E70000F03F360E00200000E03FB1
:1047F00000E06F4000005E40FEE7000010B5044698
:10480000012202210548FEF7A9F9200A00F006FD61
:10481000E0B2BDE8104000F001BD0000000C014016
:1048200070B5064600214F239F22084600F012F97A
:104830002C2000F04BF9002400253046FFF7DEFF66
:104840006D1C502DF9D3641CA02CF5D370BD10B590
:1048500000F0EAF8112000F039F97820FDF7DCFFCC
:10486000212000F033F9212000F030F9B12000F0D0
:104870002DF9052000F01CF93A2000F019F93A2032
:1048800000F016F9B22000F021F9052000F010F92F
:104890003A2000F00DF93A2000F00AF9B32000F0B8
:1048A00015F9052000F004F93A2000F001F93A204A
:1048B00000F0FEF8052000F0FBF83A2000F0F8F8D0
:1048C0003A2000F0F5F8B42000F000F9032000F0E1
:1048D000EFF8C02000F0FAF8622000F0E9F80220BA
:1048E00000F0E6F8042000F0E3F8C12000F0EEF854
:1048F000C02000F0DDF8C22000F0E8F80D2000F044
:10490000D7F8002000F0D4F8C32000F0DFF88D20A5
:1049100000F0CEF86A2000F0CBF8C42000F0D6F802
:104920008D2000F0C5F8EE2000F0C2F8C52000F0A0
:10493000CDF80E2000F0BCF8E02000F0C7F8102001
:1049400000F0B6F80E2000F0B3F8022000F0B0F846
:10495000032000F0ADF80E2000F0AAF8072000F0C8
:10496000A7F8022000F0A4F8072000F0A1F80A2020
:1049700000F09EF8122000F09BF8272000F098F835
:10498000372000F095F8002000F092F80D2000F09C
:104990008FF80E2000F08CF8102000F089F8E1204C
:1049A00000F094F8102000F083F80E2000F080F85A
:1049B000032000F07DF8032000F07AF80F2000F0CB
:1049C00077F8062000F074F8022000F071F8082053
:1049D00000F06EF80A2000F06BF8132000F068F881
:1049E000262000F065F8362000F062F8002000F084
:1049F0005FF80D2000F05CF80E2000F059F8102050
:104A000000F056F83A2000F061F8052000F050F868
:104A1000362000F05BF8A82000F04AF8BDE810400E
:104A2000292000F053B8000010B5094C00220121E4
:104A30002046FEF793F86420FDF7EEFE01221146B2
:104A40002046FEF78BF8BDE810403220FDF7E4BEAB
:104A5000000C01402DE9F04107461C4615460E4664
:104A60002A2000F033F8002000F022F87F1CF8B272
:104A700000F01EF8002000F01BF86D1CE8B200F0FA
:104A800017F82B2000F022F8002000F011F81A3659
:104A9000F0B200F00DF8002000F00AF81A34E0B28D
:104AA00000F006F8BDE8F0412C2000F00FB800003F
:104AB00010B50446012202210348FEF74FF82046B4
:104AC000BDE8104000F0AABB000C014010B5044640
:104AD000002202210348FEF741F82046BDE81040BD
:104AE00000F09CBB000C0140114808B5416941F041
:104AF000010141614069002200F0010000900521A0
:104B00000C20FEF7BDF80C20FEF7AEF800220521C0
:104B10000D20FEF7B5F80D20FEF7A6F800220521BE
:104B20000F20FEF7ADF8BDE808400F20FEF79CB857
:104B300000100240F0B5234885B0816941F01001B2
:104B40008161816901F010010491816941F02001C6
:104B50008161816901F020010491816941F00401C2
:104B60008161816901F004010491816941F00801CA
:104B700081618069144E00F0080004900022102129
:104B80003046FDF7EBFF012240213046FDF7E6FFFE
:104B90000E4F0122F3213846FDF7E0FF502001249B
:104BA000CDE900040225694603953046FDF7F8FE7D
:104BB000F320CDE90004694603953846FDF7F0FE81
:104BC00005B0F0BD0010024000080140000C01409B
:104BD0001CB52448224901604FF0FF3141604FF479
:104BE00080718160FEF7B2FC18B119211EA002F09D
:104BF00031FD01211B48FEF7F1FB43F2F224A042F4
:104C00002DD011208DF8040050208DF805000020D3
:104C10008DF80600012201A91248FEF763FD18B1C4
:104C2000252111A002F016FD02208DF800000620BB
:104C30008DF8010001208DF8020019208DF8030085
:104C4000012269460748FEF7EBFC18B12F2106A0A8
:104C500002F000FD224601210248FEF7C7FB1CBD01
:104C600000280040380300202E2E5C4253505C6226
:104C700073705F7274632E6300000000114810B5FA
:104C80000F4901604FF4827141604FF4004181602F
:104C900000210222C0E903121202C0E90512C1611B
:104CA0000162416281620A21C162FEF78EFD002825
:104CB00005D0BDE81040192103A002F0CBBC10BD07
:104CC000003001404C0300202E2E5C4253505C62A9
:104CD00073705F7370692E630000000010B5234885
:104CE0008EB04FF080410024C0E900145921C0E982
:104CF000024104618461FEF7C9FE18B119211CA0AC
:104D000002F0A8FC4FF48050079007A91748FEF75F
:104D100021FF18B11F2116A002F09CFC1348FFF7D9
:104D2000C2F818B1242112A002F094FC0B940BA934
:104D30000E480C94FEF782FE18B12B210CA002F055
:104D400089FC6020CDE900040294002269460748EE
:104D50000494FFF740F818B1342105A002F07AFC62
:104D60000248FFF725F80EB010BD0000A403002094
:104D70002E2E5C4253505C6273705F74696D2E63BB
:104D8000000000000D4810B50B4901604FF4E131FF
:104D90004160002181600C22C160C0E90412816180
:104DA000C161FFF709FA002805D0BDE810402021B5
:104DB00003A002F04FBC10BD0038014028040020C1
:104DC0002E2E5C4253505C6273705F757361727417
:104DD0002E6300000D4810B50B4901604FF4E1311E
:104DE0004160002181600C22C160C0E90412816130
:104DF000C161FFF7E1F9002805D0BDE8104033217B
:104E000003A002F027BC10BD00440040680400204D
:104E10002E2E5C4253505C6273705F7573617274C6
:104E20002E6300000D4810B50B4901604FF4E131CD
:104E30004160002181600C22C160C0E904128161DF
:104E4000C161FFF7B9F9002805D0BDE8104046213F
:104E500003A002F0FFBB10BD00480040A8040020E2
:104E60002E2E5C4253505C6273705F757361727476
:104E70002E630000FEE7FEF723B90907090E00289C
:104E800006DA00F00F0000F1E02080F8141D7047F2
:104E900000F1E02080F800147047010901EB810166
:104EA00000F00F0000EB4100C0B27047002102E0AB
:104EB0000A38C0B2491C0A28FAD2090740EA116030
:104EC00070472DE9F0478846064600270221FEF785
:104ED00085FA814603213046FEF780FA0446042114
:104EE0003046FEF77BFA054644E0012C16D0032C31
:104EF00014D0052C12D0072C10D0082C0ED00A2C60
:104F00000CD00C2C0AD0042C11D0062C0FD0092C5C
:104F10000DD00B2C0BD0022C0ED02AE01F2D0DD360
:104F20000C2C06D10124254609F1010921E01E2D92
:104F300004D30125641C1CE01C2D02D205F10105DF
:104F400017E012D11FFA89F0810710D16421B0FB5C
:104F5000F1F201FB120131B94FF4C871B0FBF1F26B
:104F600001FB120018B91D2503E01D2D01D10324FA
:104F700001257F1C4745B8D386F80F90E1B27173C5
:104F8000EAB2B273484600F05FF830734A46022135
:104F90003046FEF72BFA224603213046FEF726FA6A
:104FA0002A463046BDE8F0470421FEF71FBA70B527
:104FB0000446FDF7D9FD05464FF47A7606E0FDF785
:104FC000D3FD401BB04201D9032070BD206840686A
:104FD0008006F4D52068416841F01001416000204E
:104FE00070BD000070B504460068416821F01001F2
:104FF0004160FDF7B9FD05464FF47A7607E000BF42
:10500000FDF7B2FD401BB04201D9032070BD2068FE
:1050100040688006F4D5002070BD0168086A496ABE
:1050200089B241EA00407047006881698AB2C1696B
:105030008BB2816989B28A4203D0C06961F31F4093
:10504000704743EA02407047F0B56424C1EBC103E6
:105050000927A500072603EB01130329B3FBF7F18A
:1050600000F5FA60114401440AD2401EB0FBF4F28C
:1050700001EB9001B0FBF5F0891A0844001D08E02F
:10508000B0FBF4F201EB9001B0FBF5F0891A084493
:10509000801CB0FBF6F106FB1100C0B2F0BD70B58C
:1050A0000D4606460024FFF782FF48B93168280CF8
:1050B00008623168A8B248623046FFF793FF00B13A
:1050C0000124204670BD70B50D4606460024FFF74A
:1050D0006EFF48B93168280C88613168A8B2C86190
:1050E0003046FFF77FFF00B10124204670BD00006D
:1050F00038B51349CA6942F00102CA61C969124C44
:1051000001F0010100910F4921601021616000212F
:10511000A1608021E160490021618900C4E9051096
:105120008800E0612046FDF7E7FA20B14FF4DC711A
:1051300006A002F08FFA0A484462606238BD00009F
:105140000010024058000240E40300202E2E5C4272
:1051500053505C6273705F7773323831322E630064
:10516000A403002038B50B4600920446002280219B
:1051700000F008F8002804D0606D40F02000606561
:10518000032038BD2DE9F0411D4617460E46044662
:10519000DDF8188035E0681C33D02DB1FDF7E4FC54
:1051A000A0EB0800A8422CD32068416821F0E00160
:1051B00041606068B0F5827F0BD1A068B0F5004F08
:1051C00002D0B0F5806F04D12068016821F0400161
:1051D0000160A06AB0F5005F0AD1206801684DF651
:1051E000FF72114001602068016841F400510160C4
:1051F000012084F85100002084F850000320BDE80D
:10520000F0812068806836EA000004D00020B842AF
:10521000C1D10020F3E70120F9E7000001B54FF606
:10522000FF73012269460248FEF732FB08BD000009
:105230004C03002010B5002306E000BF30F8024BFD
:1052400021F813405B1C9BB29342F7D310BD0000C2
:105250002DE9F84F83460020ABF1006415468A46DD
:105260000090B4F5803F56D2FDF786FBA70AC4F341
:105270004806C6F50074A54200D82C46DFF89C907D
:105280004FF0006000EB872080464FF40072234906
:10529000FFF7D0FF00204FF6FF7206E0331839F811
:1052A0001310914203D1401C80B2A042F6D3A04219
:1052B0002BD21B48002101600121C0E9028169460F
:1052C000FDF7BCFA0020494607E000BF3AF810207D
:1052D0008319401C21F8132080B2A042F6D30F4955
:1052E00040464FF4007200BF00F01CF8A54210D0F9
:1052F000281B0AEB440AA344002685B24FF400742D
:105300007F1CA542BCD82C46BAE7224651465846D7
:10531000EAE7FDF7E7FABDE8F88F000098110020F2
:10532000981500202DE9F04116460F460546002449
:105330000AE000BF37F81420002329460120FDF7BA
:10534000DBFA641CA4B2AD1CB442F3D3BDE8F08117
:10535000012080F31388BFF34F8F05480168054A89
:1053600001F4E06111430160BFF34F8F00BFFDE71F
:105370000CED00E00400FA0508B5FFF768FA4FF6F7
:10538000FF70FFF74DFA4AA04EF67D740090234659
:105390001F2214212320FCF7E5FF48A04FF4784892
:1053A00028210090234642460846FCF7DBFF4FF4D5
:1053B000FA70FDF731FA0A2243A144A003F02CF859
:1053C000464E96F88C00FF2804D10A223EA144A044
:1053D00003F022F80A223CA14AA003F01DF80A2299
:1053E00039A14CA003F018F803F0CCFD03F054F8F9
:1053F0004D4F4E4D23461F223C2105200097FCF7C0
:10540000B1FF96F88D00012814D029A00090234602
:105410001F2214212320FCF7A5FF287902280BD096
:1054200003281BD0042824D0012831D0FF282FD0F6
:1054300070B338E03EA0E9E7022003F079FE3FA018
:1054400000902346424600213220FCF78BFF68780B
:10545000012828D10A20FCF717FA24E00A20FCF7DB
:1054600013FA032003F064FE36A023464246009060
:1054700009E0032003F05CFE0A20FCF705FA31A0E6
:1054800023461F22009000213220FCF76BFF0AE028
:105490002EA000902346424600213220FCF762FFF6
:1054A000012003F045FE012003F0ACFAA2E7000062
:1054B00077696669D2D1B6CFBFAA0000CFB5CDB3A8
:1054C000CAB1BCE4000000004F4B000041542B4324
:1054D000574D4F44453D330D0A0000001622002071
:1054E00041542B43575341503D2245535061612253
:1054F0002C2231323334353637383930222C352CA2
:10550000330D0A0041542B4349504D55583D310D40
:105510000A00000041542B4349505345525645520E
:105520003D312C38300D0A00AA0D002098020020D1
:1055300077696669D2D1C1ACBDD30000C4A3CABD2E
:10554000B6FE0000C4A3CABDC8FD0000C4A3CABD06
:10555000D2BB000010B5FDF70DFBBDE8104003F015
:105560005DBA70B594B00124052000250090CDE906
:1055700002544FF48030019002260494CDE9076074
:105580004FF4E01009906846FDF7A6FD00B1FEE774
:105590000F20CDE90A064FF48060CDE90C500221BE
:1055A0000AA80E95FDF780FC00B1FEE74FF480706D
:1055B000CDE90F400FA8FDF7FFFB00B1FEE7FDF7B7
:1055C0001DFDFDF721FD4FF47A71B0FBF1F0FEF700
:1055D0001FFA0420FEF710FA00220F21501EFDF7DB
:1055E0004FFB14B070BD00000D48016841F001018F
:1055F000016041680B4A1140416001680A4A11404C
:105600000160016821F480210160416821F4FE01FC
:1056100041604FF41F0181600449C0030860704776
:10562000001002400000FFF8FFFFF6FE08ED00E06A
:10563000074D05F2EE3400BF03F0E0F86A88A91DBB
:10564000204600F065FB012003F0DCF9F4E70000E0
:10565000700500200148FEF7F8BA0000A4030020FE
:10566000F0B50268164B174C174D4FF08047984223
:1056700005D0B84203D0A04201D0A84203D122F005
:1056800070064A683243984205D0B84203D0A0421F
:1056900001D0A84203D122F44074CA68224322F008
:1056A00080044A69224302608A68C2620A68826290
:1056B000984201D10969016301214161F0BD0000F7
:1056C000002C0140000400400008004010B50123F8
:1056D000046A8B409C430462036A8A40134303625A
:1056E00010BD10B5446A012184F83D10626A8242FF
:1056F00001D121770EE0A16A814201D1022008E0A8
:10570000E16A814201D1042003E0216B814201D191
:10571000082020772046FEF7E2FB0020207710BD0E
:1057200010B5406A012180F83D10FEF78CFA10BDDB
:1057300010B5846842EA032224F47F440A432243DA
:10574000826010BD826822F070020A4342F00701B5
:105750008160704730B5026A22F001020262026A7B
:105760004368846924F073050C682C4322F0020519
:105770008A682A430A4DA8420BD122F00805CA685C
:1057800023F440732A434D6922F004021D438B69C0
:105790002B434360846149684163026230BD00006D
:1057A000002C014030B5026A22F010020262026A47
:1057B000436884690D6824F4E64444EA05248D684E
:1057C00022F0200242EA05120B4DA8420ED1CD680C
:1057D00022F0800242EA05124D6923F4406343EA55
:1057E00085038D6922F0400243EA850343608461AA
:1057F00049688163026230BD002C014030B5026A05
:1058000022F480720262036A4268C46923F400735E
:1058100024F073050C682C438D6843EA05230C4D76
:10582000A8420ED1CD6823F4006343EA05234D69F5
:1058300022F4405242EA05128D6923F4806342EA61
:1058400005124260C4614968C163036230BD000053
:10585000002C014030B5026A22F480520262046AD0
:105860004268C3690D6823F4E64343EA05238D6863
:1058700024F4005444EA0534064DA84204D14D698D
:1058800022F4804242EA85124260C36149680164A1
:10589000046230BD002C014010B5036A046A24F094
:1058A00001040462846924F0F00444EA021423F041
:1058B0000A020A438461026210BD10B5036A23F034
:1058C000100303628369046A23F4704343EA0232DB
:1058D00024F0A00343EA01118261016210BD10B5FA
:1058E000406A0021C185C184FEF7DCFB10BD70B5A4
:1058F000446A2068406994F83910C0F3C01000254C
:10590000212904D118B1E584204600F062F820680E
:10591000406994F83A10C0F38010222904D118B1DC
:10592000E585204600F047F8E06B40F01000E063AA
:105930002046FEF7B7FB70BD10B50146406A096806
:105940000968890613D40021C1850168CA6822F458
:105950008072CA6001684A6922F001024A610168E6
:105960004A6922F040024A61202180F83A10FEF78D
:1059700051FD10BD10B5406AFEF74DFD10BD10B5CC
:105980000146406A0968096889060CD40021C1846F
:1059900001684A6922F080024A610068C16841F0EA
:1059A0004001C16010BDFEF7D5FD10BD10B5406AC5
:1059B000FEF7D1FD10BD0168CA6822F49072CA607A
:1059C00001684A6922F001024A61202180F83A10F8
:1059D00070470168CA6822F0C002CA60202180F8BE
:1059E0003910704710B590F83A10222901D00220E2
:1059F00010BD8168B1F5805F11D00169002901688F
:105A00001FD0496801F07F03816A4A1C82620B70D3
:105A1000C18D491E0904090CC18518D02BE002690B
:105A2000816A002A0268526805D0D2B20A80816A6F
:105A3000491C8162ECE7C2F308020A80816A891C72
:105A4000F7E74A68816A4B1C83620A70E0E70168E5
:105A5000CA6822F02002CA600168CA6822F4807213
:105A6000CA6001684A6922F001024A61202180F877
:105A70003A10FEF7CFFC002010BD00002DE9F041E8
:105A8000044600680169E26821F440511143016154
:105A90002169A0680843616908432168CA6841F226
:105AA0000C639A430243CA6020684169A26921F4E9
:105AB0004071114341614C49206864253226884277
:105AC0003CD1FDF7B7FA00EBC00101EB00106168B3
:105AD0008900B0FBF1F7FDF7ADFA00EBC00101EB77
