:020000040800F2
:10200000D8430020992100085B770008317400084C
:1020100059770008F32900084182000800000000F9
:102020000000000000000000000000000121000886
:10203000095300080000000045210008D17A00087B
:10204000B3210008B3210008B3210008B321000820
:10205000B3210008B3210008B3210008B321000810
:10206000B3210008B3210008B3210008B321000800
:10207000212A00082D2A0008B3210008392A000867
:10208000B3210008B3210008B3210008B3210008E0
:10209000B3210008B3210008B3210008B3210008D0
:1020A000B3210008B3210008B3210008B3210008C0
:1020B000C57B0008B3210008B3210008B321000844
:1020C000B3210008B3210008B3210008B3210008A0
:1020D000B3210008B3210008B321000825820008BD
:1020E000B3210008B3210008B3210008DFF80CD0A9
:1020F00000F012FC0048004749AC0008D84300201B
:10210000224B19680868B0E8F00F80F30988BFF324
:102110006F8F4FF0000080F311884EF00D0E704766
:102120000000000006480068006880F3088862B676
:1021300061B6BFF34F8FBFF36F8F00DF00BF00BFEB
:1021400008ED00E0EFF30980BFF36F8F0F4B1A68C3
:1021500020E9F00F106008B54FF0500080F31188AF
:10216000BFF34F8FBFF36F8F09F04CFB4FF00000B0
:1021700080F31188BDE8084019680868B0E8F00FDE
:1021800080F30988BFF36F8F704700BFEC02002017
:10219000EFF3058070470000064880470648004777
:1021A000FEE7FEE7FEE7FEE7FEE7FEE7FEE7FEE707
:1021B000FEE7FEE7617B0008ED200008202A04DB33
:1021C000203A21FA02F00021704721FA02F3D040B0
:1021D000C2F1200291400843194670470649074A58
:1021E0000868504343F239021044086040087047C1
:1021F0000149086070470000280300206D4EC64169
:1022000040EA01039B0703D009E008C9121F08C078
:10221000042AFAD203E011F8013B00F8013B521EF8
:10222000F9D27047D2B201E000F8012B491EFBD26F
:1022300070470022F6E710B513460A4604461946D1
:10224000FFF7F0FF204610BD30B505462A460B4685
:1022500012F8010B13F8014B08B1A042F8D01CB1E1
:10226000002802D06D1CF1E7284630BD421C10F852
:10227000011B0029FBD1801A704710B5002200E035
:10228000521C835C8C5CA34201D1002BF8D1D8B2E4
:10229000E1B2401A10BD80EA010210B502F000431D
:1022A000400022D04A001FD0010E01EB1261C0F3A2
:1022B0005600C2F3560240F4000042F40002A0FBB4
:1022C000022000047F39140400D0401C50EA124060
:1022D00001D44000491EC2B20C0604EBD010401CD1
:1022E0004008802A02D003E0002010BD20F0010049
:1022F000002900DA0020184310BD2DE9FE4F80466A
:1023000081EA0300C00F0C46009021F0004123F049
:102310000045B8EB0200A94105D24046214690464F
:102320001C460B46024623F00040104347D0270DC1
:10233000C7F30A00C3F30A510290401A01904028E3
:102340006BDAC3F3130040F4801B0098924620B16F
:102350000023D2EB030A63EB0B0B01985946C0F143
:102360004002504600F023FA06460D4650465946B4
:10237000019A00F02BFA10EB08006141002487EA73
:10238000115284EAE7731A4340D0009A62B3019A6B
:10239000012A4FEA075215DC001B61EB02014FF0E6
:1023A000004202EA0752CDE90042001C41F58011CB
:1023B00032462B4600F062FA03B0BDE8F08F40468B
:1023C0002146F9E7001B61EB0201001C41F5801377
:1023D00000185B412018A2F5001747EB030140EA03
:1023E000D570B6196D4111E06D084FEA360645EA21
:1023F000C0754FEA0752001B61EB0201001C41F55A
:10240000801149084FEA30000019514132462B46ED
:1024100003B0BDE8F04F00F022BA0098012240005E
:102420000023D0EB020263EBE073009821464FEAF1
:10243000E074B8EB000061EB0401E9E783F00043CE
:102440005BE781F0004158E72DE9FE4F81EA030484
:1024500004F0004421F0004100944FF0000B23F001
:10246000004350EA01045ED052EA03045BD0C3F398
:102470000A54C1F30A552C44A4F2F3340194A0FB8E
:102480000254C1F3130141F48011C3F3130343F465
:10249000801301FB024400FB034E840A970A44EABE
:1024A000815447EA8357A4FB076802958D0A05FB10
:1024B00007854FEA932C04FB0C542705029D4FEA35
:1024C000065847EA1637B5EB08056EEB070C870E82
:1024D000920E47EA811742EA8312A7FB0201B6EB8C
:1024E0000B0164EB00042B0D43EA0C335E1844EB44
:1024F0001C50DA465146E7FB0201C5F313044FEACC
:102500000B3343EA14534FEA0432019C43EA0603B7
:10251000A4F10C040294009CCDE900B400F0AEF9E3
:1025200003B0BDE8F08F00200146F9E72DE9F04D3A
:1025300081EA030404F0004B21F0004514464FF0FB
:10254000000A23F0004150EA050220D054EA0102BB
:102550001DD0C5F30A570246C5F31303C1F3130098
:10256000C1F30A5640F4801543F48013A7EB060824
:10257000101BD64608F2FD3873EB050002D308F1B4
:10258000010801E092185B41B8F1000F03DA002066
:102590000146BDE8F08D00204FF4801106468446C8
:1025A0000EE0171B73EB050705D3121B63EB050346
:1025B00006434CEA010C49084FEA300092185B418F
:1025C00050EA0107EDD152EA030012D082EA04007A
:1025D00083EA0501084305D0101BAB4106D2012256
:1025E000002306E000224FF0004302E06FF00102FA
:1025F00053101AEB06004CEB085110EB0A0041EBAC
:102600000B01BDE8F04D00F02AB970B521F0004390
:1026100003430CD0C1F30A550024D5EB040564EB49
:102620000403D617AD1AB34102DB0020014670BD8A
:10263000201841EB025170BD96230022114600F094
:10264000E0B80EB540F2334102910021CDE900110E
:102650000A460B4600F012F903B000BDC1F30A525E
:1026600010B5C1F3130140F2FF3341F480119A42D7
:1026700001DA002010BD40F233439A42A2F2334205
:1026800003DC5242FFF79AFD10BD904010BD00F0F0
:10269000004230F000400AD0C10D01F56071C0F376
:1026A000160042EA0151C20840071143704700205A
:1026B0000146704730B5041E71F1000404DB4FF091
:1026C0000044404264EB0101141E73F1000405DB79
:1026D0001C464FF00043524263EB04038B4208BF99
:1026E000824230BD30B5041E71F1000404DB4FF0AE
:1026F0000044404264EB0101141E73F1000405DB49
:102700001C464FF00043524263EB0403994208BF5A
:10271000904230BD01F0004330B421F0004150EA56
:10272000010206D00A0DA2F56072C1F31301002A5E
:1027300002DC30BC00207047440F44EAC104C100F1
:10274000E01830BC00EBC25000F052B82DE9F05F49
:102750000546002092469B46884606468146402410
:102760001BE02846414647462246FFF727FD5346D1
:102770005A46C01A914110D311461846224600F01D
:1027800016F82D1A67EB01084F462246012000215A
:1027900000F00DF817EB00094E41201EA4F10104D2
:1027A000DFDC484631462A464346BDE8F09F202AF2
:1027B00004DB203A00FA02F1002070479140C2F198
:1027C000200320FA03F3194390407047202A06DBC8
:1027D000CB17203A41FA02F043EAE07306E041FAEF
:1027E00002F3D040C2F120029140084319467047DD
:1027F0000029A8BF7047401C490008BF20F0010015
:10280000704710B4B0FA80FC00FA0CF050EA0104F2
:1028100004BF10BC704749B1CCF1200421FA04F484
:1028200011FA0CF118BF012121430843A3EB0C015D
:10283000CB1D4FEA00614FEA102042BF002010BCC0
:10284000704700EBC35010440029A4BF10BC704770
:10285000401C490008BF20F0010010BC704710B5B3
:10286000141E73F1000408DA401C41F100019218B3
:102870005B411A4301D120F0010010BD2DE9F04D5C
:1028800092469B4611B1B1FA81F202E0B0FA80F2B1
:1028900020329046FFF78BFF04460F4640EA0A00BD
:1028A00041EA0B0153465A46084313D0114653EAF6
:1028B000010019D0C8F140025046FFF77FFC0546E1
:1028C0000E46504659464246FFF771FF084305D071
:1028D000012004E020463946BDE8F08D0020054384
:1028E00046EAE0762C4337430A986305E40AA0EBF6
:1028F00008000022FD0A44EA47540A3002D50020AD
:102900000146E9E7010510196941DDE908450019AB
:102910006941BDE8F04DA2E7064C074D06E0E068CE
:1029200040F0010394E8070098471034AC42F6D316
:10293000FFF7E0FB80BD0008A0BD00080EB5C10F89
:1029400080EAE0700844CA07002140F233438DE872
:102950000E000A460B46FFF791FF03B000BD70B5AD
:10296000C1F30A5201F000450024C1F3130140F203
:10297000FF3341F480119A4201DA002070BD40F229
:1029800033439A42A2F2334203DC5242FFF716FC71
:1029900000E090402C43F1D0404270BD70B58C18DF
:1029A00010F8015B15F0070301D110F8013B2A1163
:1029B00006D110F8012B03E010F8016B01F8016B50
:1029C0005B1EF9D12B0705D40023521E0DD401F84C
:1029D000013BFAE710F8013BCB1A921C03E013F815
:1029E000015B01F8015B521EF9D5A142D8D300204A
:1029F00070BDFEE710B54FF6FF72084B09E000BF4F
:102A000010F8014B5440E4B2491E33F8144084EAF4
:102A100012220029F4DCD04380B210BDB4000020A3
:102A2000014802F0AFBD0000F4040020014802F0AC
:102A3000A9BD0000B004002070B51F4C002520780F
:102A4000012804D1257000211C4804F0D7F8A07893
:102A5000012814D16089401C80B26081218988429C
:102A600008D91749A5706581012008700021134815
:102A700004F0C4F86089C10705D008F065FC6078EF
:102A8000012803D012E008F027FCF8E7A07868B925
:102A9000A088401C80B2A080E188491E884205DDE4
:102AA0006570A5800021054804F0A8F8BDE87040D5
:102AB000044802F067BD0000480000206C030020BD
:102AC000C4020020AC03002010B500F011F8BDE8EE
:102AD000104000F003B8704770470000024A002120
:102AE000024802F02BBE0000D72A0008AC030020E9
:102AF000024A0121024802F021BE0000D92A000842
:102B0000AC03002010B50C46811D4FF47A722046AC
:102B100004F050FA2068C16841F01001C16010BD96
:102B200030B590F840500124AC40C56B6C6004682F
:102B300063604368102B036803D099600068C2602B
:102B400030BD9A600068C16030BD00000149024894
:102B5000FFF7D8BF7004002038050020F0B5FF4F04
:102B60001426BC188B1800287ED001287DD002289E
:102B70007CD003287BD004287AD0052879D0062879
:102B800078D0072877D0082876D0092875D00A2869
:102B900074D00B2873D00C2872D00D2871D00E2859
:102BA00070D00F286FD010286ED011286DD0122849
:102BB0006CD013286BD1DD78885C2D1A05EB850568
:102BC000AD0095FBF6F5284484F85B02DD78885C5F
:102BD0002D1A05EB8505AD0095FBF6F5284484F824
:102BE0005E02DD78885C2D1A05EB8505AD0095FB4E
:102BF000F6F5284484F86102DD78885C2D1A05EB2F
:102C00008505AD0095FBF6F5284484F86402DD786F
:102C1000885C2D1A05EB8505AD0095FBF6F528447B
:102C200084F86702DD78885C2D1A05EB8505AD0018
:102C300095FBF6F5284484F86A02DD78885C2D1A45
:102C400005EB8505AD0095FBF6F5284484F86D028B
:102C5000DD78885C2D1A05EB8505AD0095FBF6F552
:102C6000284484F8700213E08CE0B5E0D9E010E16C
:102C700046E18AE1EDE185E2AEE226E3C0E3FDE371
:102C8000FDE3FDE3FDE3FDE3FDE3FDE3FDE378E0CC
:102C9000DD78885C2D1A05EB8505AD0095FBF6F512
:102CA000284484F87302DD78885C2D1A05EB8505CD
:102CB000AD0095FBF6F5284484F87602DD78885C53
:102CC0002D1A05EB8505AD0095FBF6F5284484F833
:102CD0007902DD78885C2D1A05EB8505AD0095FB42
:102CE000F6F5284484F87C02DD78885C2D1A05EB23
:102CF0008505AD0095FBF6F5284484F87F02DD7864
:102D0000885C2D1A05EB8505AD0095FBF6F528448A
:102D100084F88202DD78885C2D1A05EB8505AD000C
:102D200095FBF6F5284484F89102DD78885C2D1A2D
:102D300005EB8505AD0095FBF6F5284484F88E0279
:102D4000DD78885C2D1A05EB8505AD0095FBF6F561
:102D5000284484F88B02DD78885C2D1A05EB850504
:102D6000AD0095FBF6F5284484F88802DB78885C92
:102D7000191A01EB8101890091FBF6F1084484F8EE
:102D80008502F0BD0025401C93F803E011F802C055
:102D9000AEEB0C0E0EFB00FE9EFBF6FEF44405EBC4
:102DA000450EBE4496446D1CEDB28EF84BC01C2DF2
:102DB000EAD3DF788D5C7F1B474397FBF6F73D44F2
:102DC00084F8C650DB78895C5A1A424392FBF6F0CD
:102DD000084484F8C300F0BDDD78885C2D1A6D00CE
:102DE00095FBF6F5284484F84800DD78885C2D1AB8
:102DF0006D0095FBF6F5284484F84500DD78885C85
:102E00002D1A6D0095FBF6F5284404F8420FDB7887
:102E1000885C191A490091FBF6F1084484F87E0099
:102E2000F0BDDD78885C2D1A05EB450595FBF6F5C0
:102E3000284484F8BD00DD78885C2D1A05EB450533
:102E400095FBF6F5284484F8BA00DD78885C2D1AE5
:102E500005EB450595FBF6F5284484F8B700DD78C9
:102E6000885C2D1A05EB450595FBF6F5284484F89A
:102E70003F00DD78885C2D1A05EB450595FBF6F5DE
:102E8000284484F83C00DB78885C191A01EB410186
:102E900030E0DD78885C2D1AAD0095FBF6F528440E
:102EA00084F8BD00DD78885C2D1AAD0095FBF6F541
:102EB000284484F8BA00DD78885C2D1AAD0095FBB3
:102EC000F6F5284484F8B700DD78885C2D1AAD004B
:102ED00095FBF6F5284484F83F00DD78885C2D1AD0
:102EE000AD0095FBF6F5284484F83C00DB78885C5F
:102EF000191A890091FBF6F1084484F83900F0BDF5
:102F0000DD78885C2D1A05EB850595FBF6F52844E0
:102F1000B854DD78885C2D1A05EB850595FBF6F530
:102F20002844E070DD78885C2D1A05EB850595FB5B
:102F3000F6F52844A071DD78885C2D1A05EB85052F
:102F400095FBF6F528446072DD78885C2D1A05EB58
:102F5000850595FBF6F52844207301E0D60D002089
:102F6000DD78885C2D1A05EB850595FBF6F5284480
:102F700084F83600DB78885C191A01EB810191FB3B
:102F8000F6F1084484F89F00F0BDDD78885C2D1AC6
:102F900005EB45056D0095FBF6F5284484F8C9005E
:102FA000DD78885C2D1A05EB45056D0095FBF6F57F
:102FB000284484F8A200DD78885C2D1A05EB4505CD
:102FC0006D0095FBF6F5284484F8A500DD78885C53
:102FD0002D1A05EB45056D0095FBF6F5284484F8A0
:102FE000A800DD78885C2D1A05EB45056D0095FB82
:102FF000F6F5284484F8AB00DD78885C2D1A05EBE3
:1030000045056D0095FBF6F5284484F83300DD781E
:10301000885C2D1A05EB45056D0095FBF6F52844F7
:1030200084F83000DD78885C2D1A05EB45056D00CD
:1030300095FBF6F5284484F82D00DB78885C191A96
:1030400001EB4101490091FBF6F1084484F82A00A4
:10305000F0BDDD78885C2D1AC5EBC50595FBF6F54E
:10306000284484F8AE00DD78885C2D1AC5EBC505D0
:1030700095FBF6F5284484F8B100DD78885C2D1ABC
:10308000C5EBC50595FBF6F5284484F8B400DD785A
:10309000885C2D1AC5EBC50595FBF6F5284484F828
:1030A000CC00DD78885C2D1AC5EBC50595FBF6F5DF
:1030B000284484F8CF00DD78885C2D1AC5EBC5055F
:1030C00095FBF6F5284484F8D200DD78885C2D1A4B
:1030D000C5EBC50595FBF6F5284484F8D500DD78E9
:1030E000885C2D1AC5EBC50595FBF6F5284404F858
:1030F0000F0FDD78885C2D1AC5EBC50595FBF6F53D
:103100002844E070DD78885C2D1AC5EBC50595FB79
:10311000F6F52844A071DD78885C2D1AC5EBC5054D
:1031200095FBF6F528446072DD78885C2D1AC5EBB6
:10313000C50595FBF6F528442073DD78885C2D1ACB
:10314000C5EBC50595FBF6F52844E073DD78885C92
:103150002D1AC5EBC50595FBF6F528442076DD78DC
:10316000885C2D1AC5EBC50595FBF6F528446075FE
:10317000DB78885C191AC1EBC10191FBF6F10844B8
:10318000A074F0BDDD78885C2D1AED0095FBF6F596
:10319000284404F8D80FDD78885C2D1AED0095FBE3
:1031A000F6F52844E070DD78885C2D1AED0095FB7B
:1031B000F6F52844A071DD78885C2D1AED0095FBAA
:1031C000F6F528446072DB78885C191AC90091FB17
:1031D000F6F108442073F0BDDD78885C2D1A05EB0C
:1031E000C50595FBF6F5284484F8E700DD78885C92
:1031F0002D1A05EBC50595FBF6F5284484F8EA0081
:10320000DD78885C2D1A05EBC50595FBF6F528449D
:1032100084F8ED00DD78885C2D1A05EBC50595FB7B
:10322000F6F5284484F8F000DD78885C2D1A05EB6B
:10323000C50595FBF6F5284484F8F300DD78885C35
:103240002D1A05EBC50595FBF6F5284484F8B60163
:10325000DD78885C2D1A05EBC50595FBF6F528444D
:1032600084F8B901DD78885C2D1A05EBC50595FB5E
:10327000F6F5284484F8BC01DD78885C2D1A05EB4E
:10328000C50595FBF6F5284484F8BF01DD78885C18
:103290002D1A05EBC50595FBF6F5284484F8C20107
:1032A000DD78885C2D1A05EBC50595FBF6F52844FD
:1032B00084F8C501DB78885C191A01EBC10191FB28
:1032C000F6F1084484F8C801F0BDDD78885C2D1A59
:1032D00005EB85056D0095FBF6F5284484F8F600AE
:1032E000DD78885C2D1A05EB85056D0095FBF6F5FC
:1032F000284484F8F900DD78885C2D1A05EB8505F3
:103300006D0095FBF6F5284484F8FC00DD78885CB8
:103310002D1A05EB85056D0095FBF6F5284484F81C
:10332000FF00DD78885C2D1A05EB85056D0095FBA7
:10333000F6F5284484F8B301DD78885C2D1A05EB96
:1033400085056D0095FBF6F5284484F8B001DD781D
:10335000885C2D1A05EB85056D0095FBF6F5284474
:1033600084F8AD01DD78885C2D1A05EB85056D00CC
:1033700095FBF6F5284484F8AA01DD78885C2D1ABF
:1033800005EB85056D0095FBF6F5284484F8CB0127
:10339000DD78885C2D1A05EB85056D0095FBF6F54B
:1033A000284484F8CE01DD78885C2D1A05EB85056C
:1033B0006D0095FBF6F5284484F8D101DD78885C32
:1033C0002D1A05EB85056D0095FBF6F5284484F86C
:1033D000D401DD78885C2D1A05EB85056D0095FB21
:1033E000F6F5284484F8D701DB78885C191A01EBDC
:1033F0008101490091FBF6F1084484F8DA01F0BD3F
:10340000DD78885C2D1A05EB450707EBC50595FBB4
:10341000F6F5284484F80201DD78885C2D1A05EB66
:10342000450707EBC50595FBF6F5284484F805012B
:10343000DD78885C2D1A05EB450707EBC50595FB84
:10344000F6F5284484F80801DD78885C2D1A05EB30
:10345000450707EBC50595FBF6F5284484F80B01F5
:10346000DD78885C2D1A05EB450707EBC50595FB54
:10347000F6F5284484F8A701DD7807E096E004E13A
:10348000ACE11AE27EE2E1E281E3FAE3885C2D1A24
:1034900005EB450707EBC50595FBF6F5284484F8D1
:1034A000A401DD78885C2D1A05EB450707EBC505FF
:1034B00095FBF6F5284484F8A101DD78885C2D1A87
:1034C00005EB450707EBC50595FBF6F5284484F8A1
:1034D0009E01DD78885C2D1A05EB450707EBC505D5
:1034E00095FBF6F5284484F8DD01DD78885C2D1A1B
:1034F00005EB450707EBC50595FBF6F5284484F871
:10350000E001DD78885C2D1A05EB450707EBC50562
:1035100095FBF6F5284484F8E301DD78885C2D1AE4
:1035200005EB450707EBC50595FBF6F5284484F840
:10353000E601DD78885C2D1A05EB450707EBC5052C
:1035400095FBF6F5284484F8E901DD78885C2D1AAE
:1035500005EB450707EBC50595FBF6F5284484F810
:103560002502DD78885C2D1A05EB450707EBC505BC
:1035700095FBF6F5284484F82802DD78885C2D1A3E
:1035800005EB450707EBC50595FBF6F5284484F8E0
:103590002B02DB78885C191A01EB410202EBC101B6
:1035A00091FBF6F1084484F82E02F0BDDD78885CCA
:1035B0002D1A05EB4505AD0095FBF6F5284484F87A
:1035C0000E01DD78885C2D1A05EB4505AD0095FBF5
:1035D000F6F5284484F81101DD78885C2D1A05EB96
:1035E0004505AD0095FBF6F5284484F81401DD7817
:1035F000885C2D1A05EB4505AD0095FBF6F52844D2
:1036000084F89B01DD78885C2D1A05EB4505AD003B
:1036100095FBF6F5284484F89801DD78885C2D1A2E
:1036200005EB4505AD0095FBF6F5284484F8EC0163
:10363000DD78885C2D1A05EB4505AD0095FBF6F5A8
:10364000284484F8EF01DD78885C2D1A05EB4505E8
:10365000AD0095FBF6F5284484F8F201DD78885C2E
:103660002D1A05EB4505AD0095FBF6F5284484F8C9
:103670002202DB78885C191A01EB4101890091FB79
:10368000F6F1084484F81F02F0BDDD78885C2D1A3D
:1036900005EB850707EBC50595FBF6F5284484F88F
:1036A0001701DD78885C2D1A05EB850707EBC5054A
:1036B00095FBF6F5284484F81A01DD78885C2D1A0C
:1036C00005EB850707EBC50595FBF6F5284484F85F
:1036D0001D01DD78885C2D1A05EB850707EBC50514
:1036E00095FBF6F5284484F89501DD78885C2D1A61
:1036F00005EB850707EBC50595FBF6F5284484F82F
:103700009201DD78885C2D1A05EB850707EBC5056E
:1037100095FBF6F5284484F88F01DD78885C2D1A36
:1037200005EB850707EBC50595FBF6F5284484F8FE
:103730008C01DD78885C2D1A05EB850707EBC50544
:1037400095FBF6F5284484F88901DD78885C2D1A0C
:1037500005EB850707EBC50595FBF6F5284484F8CE
:10376000F501DD78885C2D1A05EB850707EBC505AB
:1037700095FBF6F5284484F8F801DD78885C2D1A6D
:1037800005EB850707EBC50595FBF6F5284484F89E
:10379000FB01DD78885C2D1A05EB850707EBC50575
:1037A00095FBF6F5284484F8FE01DD78885C2D1A37
:1037B00005EB850707EBC50595FBF6F5284484F86E
:1037C0001C02DB78885C191A01EB810202EBC10153
:1037D00091FBF6F1084484F81902F0BDDD78885CAD
:1037E0002D1AC5EBC5056D0095FBF6F5284484F848
:1037F0002001DD78885C2D1AC5EBC5056D0095FBB1
:10380000F6F5284484F82301DD78885C2D1AC5EB91
:10381000C5056D0095FBF6F5284484F82601DD7892
:10382000885C2D1AC5EBC5056D0095FBF6F528449F
:1038300084F82901DD78885C2D1AC5EBC5056D007B
:1038400095FBF6F5284484F88601DD78885C2D1A0E
:10385000C5EBC5056D0095FBF6F5284484F883019A
:10386000DD78885C2D1AC5EBC5056D0095FBF6F576
:10387000284484F88001DD78885C2D1AC5EBC505E5
:103880006D0095FBF6F5284484F80102DD78885C2C
:103890002D1AC5EBC5056D0095FBF6F5284484F897
:1038A0000402DB78885C191AC1EBC101490091FB65
:1038B000F6F1084484F80702F0BDDD78885C2D1A23
:1038C000C5EB051595FBF6F5284484F82C01DD7849
:1038D000885C2D1AC5EB051595FBF6F5284484F890
:1038E0002F01DD78885C2D1AC5EB051595FBF6F5E3
:1038F000284484F83201DD78885C2D1AC5EB051563
:1039000095FBF6F5284484F83501DD78885C2D1A9E
:10391000C5EB051595FBF6F5284484F87D01DD78A7
:10392000885C2D1AC5EB051595FBF6F5284484F83F
:103930007A01DD78885C2D1AC5EB051595FBF6F547
:10394000284484F87701DD78885C2D1AC5EB0515CD
:1039500095FBF6F5284484F80A02DD78885C2D1A78
:10396000C5EB051595FBF6F5284484F80D02DB78C8
:10397000885C191AC1EB011191FBF6F1084484F837
:103980001002F0BDDD78885C2D1A2D0195FBF6F54F
:10399000284484F83801DD78885C2D1A2D0195FBC8
:1039A000F6F5284484F83B01DD78885C2D1A2D015A
:1039B00095FBF6F5284484F83E01DD78885C2D1AE5
:1039C0002D0195FBF6F5284484F84101DD78885CEB
:1039D0002D1A2D0195FBF6F5284484F87401DD7845
:1039E000885C2D1A2D0195FBF6F5284484F8130206
:1039F000DD78885C2D1A2D0195FBF6F5284484F8B6
:103A00001602DD78885C2D1A2D0195FBF6F5284409
:103A100084F83102DD78885C2D1A2D0195FBF6F5CE
:103A2000284484F83402DD78885C2D1A2D0195FB3A
:103A3000F6F5284484F83702DB78885C191A090106
:103A400091FBF6F1084484F83A02F0BDDD78885C19
:103A50002D1A05EB051595FBF6F5284484F844016D
:103A6000DD78885C2D1A05EB051595FBF6F52844E5
:103A700084F84701DD78885C2D1A05EB051595FB68
:103A8000F6F5284484F84A01DD78885C2D1A05EBA8
:103A9000051595FBF6F5284484F84D01DD78885C22
:103AA0002D1A05EB051595FBF6F5284484F87101F0
:103AB000DD78885C2D1A05EB051595FBF6F5284495
:103AC00084F86E01DD78885C2D1A05EB051595FBF1
:103AD000F6F5284484F86B01DD78885C2D1A05EB37
:103AE000051595FBF6F5284484F86801DD78885CB7
:103AF0002D1A05EB051595FBF6F5284484F86501AC
:103B0000DD78885C2D1A05EB051595FBF6F5284444
:103B100084F86201DD78885C2D1A05EB051595FBAC
:103B2000F6F5284484F83D02DD78885C2D1A05EB13
:103B3000051595FBF6F5284484F84002DD78885C8D
:103B40002D1A05EB051595FBF6F5284484F843027C
:103B5000DD78885C2D1A05EB051595FBF6F52844F4
:103B600084F84602DD78885C2D1A05EB051595FB77
:103B7000F6F5284484F8AC02DB78885C191A01EB6E
:103B8000011191FBF6F1084484F8AF02F0BDDD7835
:103B9000885C2D1A05EBC5056D0095FBF6F52844EC
:103BA00084F85001DD78885C2D1A05EBC5056D00A1
:103BB00095FBF6F5284484F85301DD78885C2D1ACE
:103BC00005EBC5056D0095FBF6F5284484F85F010B
:103BD000DD78885C2D1A05EBC5056D0095FBF6F5C3
:103BE000284484F85C01DD78885C2D1A05EBC50556
:103BF0006D0095FBF6F5284484F84902DD78885C71
:103C00002D1A05EBC5056D0095FBF6F5284484F8E3
:103C10004C02DD78885C2D1A05EBC5056D0095FB1F
:103C2000F6F5284484F84F02DD78885C2D1A05EB00
:103C3000C5056D0095FBF6F5284484F8A902DD78EA
:103C4000885C2D1A05EBC5056D0095FBF6F528443B
:103C500084F8A602DD78885C2D1A05EBC5056D0099
:103C600095FBF6F5284484F8A302DB78885C191AE2
:103C700001EBC101490091FBF6F1084484F8A00270
:103C8000F0BDFFE7DD78885C2D1A05EB450707EBF3
:103C9000051595FBF6F5284484F85901DD78885C14
:103CA0002D1A05EB450707EB051595FBF6F528449E
:103CB00084F85601DD78885C2D1A05EB450707EB83
:103CC000051595FBF6F5284484F85202DD78885CEA
:103CD0002D1A05EB450707EB051595FBF6F528446E
:103CE00084F85502DD78885C2D1A05EB450707EB53
:103CF000051595FBF6F5284484F85802DD78885CB4
:103D00002D1A05EB450707EB051595FBF6F528443D
:103D100084F89D02DD78885C2D1A05EB450707EBDA
:103D2000051595FBF6F5284484F89A02DD78885C41
:103D30002D1A05EB450707EB051595FBF6F528440D
:103D400084F89702DB78885C191A01EB410202EBD8
:103D5000011191FBF6F1084484F8940290E7000009
:103D600038B5154C0021E080144802F047FF144894
:103D7000416941F001014161406900F0010000909A
:103D8000202003F0A5FDFEF79FFE012060700020BB
:103D9000A0801D2104F10C0222F81010401C80B2FA
:103DA0003028F9D301B0044ABDE8304030230C324A
:103DB0000021024802F0B0BE480000206C03002041
:103DC00000100240F7B517460D4600244FF47A76EE
:103DD0001AE0E1B23A46BDF8000000F04BF900F0FD
:103DE00043F8012001F008FDBDF8000000F074FD6B
:103DF000BDF80000C0EB00104000B0FBF6F0401C26
:103E000001F0FAFC641CA4B2AC42E2D3FEBD000097
:103E1000F7B50D464FF440711248FEF70AFA002438
:103E20004FF47A761AE0E1B20122BDF8000000F00A
:103E300075F900F019F8012001F0DEFCBDF8000072
:103E400000F04AFDBDF80000C0EB00104000B0FBE0
:103E5000F6F0401C01F0D0FC641CA4B2AC42E2D3EA
:103E6000FEBD0000D60D002008B500210D4802F06F
:103E7000C5FE0D48416941F001014161406900F012
:103E800001000090002003F023FD084901203223A7
:103E9000087001B0064A002102485DF804EB02F008
:103EA0003BBE00006C0300200010024048000020D0
:103EB000720D0020F1B500244FF47A751AE000BFAE
:103EC000BDF80010204600F08DFCFFF7CDFF01206B
:103ED00001F092FCBDF8000000F0FEFCBDF800000F
:103EE000C0EB00104000B0FBF5F0401C01F084FC7A
:103EF000641CA4B2BDF800008442E1D34FF44076C4
:103F000031461648FEF795F900241CE0BDF8000084
:103F1000BDF80010001B80B200F064FCFFF7A4FFA6
:103F2000012001F069FCBDF8000000F0D5FCBDF8EF
:103F30000000C0EB00104000B0FBF5F0401C01F0A9
:103F40005BFC641CA4B2BDF800008442DED33146A1
:103F5000BDE8F8400148FEF76CB90000D60D00201E
:103F600031B500244FF47A7517E0204600F0FAFBD3
:103F7000FFF77AFF012001F03FFCBDF8000000F0E0
:103F8000ABFCBDF80000C0EB00104000B0FBF5F04A
:103F9000401C01F031FC641CA4B2BDF80000844256
:103FA000E3D300241BE000BFBDF80000001B80B27B
:103FB00000F0D8FBFFF758FF012001F01DFCBDF811
:103FC000000000F089FCBDF80000C0EB00104000CC
:103FD000B0FBF5F0401C01F00FFC641CA4B2BDF86E
:103FE00000008442E0D338BD73B500244FF47A75E5
:103FF00018E00A21204600F023FCFFF735FF0120DE
:1040000001F0FAFBBDF8000000F066FCBDF800000E
:10401000C0EB00104000B0FBF5F0401C01F0ECFBE1
:10402000641CA4B2BDF800008442E2D300241BE06B
:10403000BDF800000A21001B80B200F001FCFFF770
:1040400013FF012001F0D8FBBDF8000000F044FC94
:10405000BDF80000C0EB00104000B0FBF5F0401CC4
:1040600001F0CAFB641CA4B2BDF800008442DFD397
:104070007CBD000070B505461446224E0846FEF78A
:10408000DBFA3146FEF707F9FEF701FB1E4A1F4B2C
:10409000FEF7DAF9FEF73EFBFEF7F9FA00221C4BB9
:1040A000FEF72BF907F088F90722FEF7AEFA002297
:1040B000184BFEF722F9FEF7D1FAC3B200200146F1
:1040C000154A1BE0012C04D0022C08D0032C0DD083
:1040D00012E000EB400691551644737004E000EBCB
:1040E0004006935516447170B17005E000EB400630
:1040F000915516447170B370401C80B2A842E1D350
:1041000070BD0000B5B4B43F5DA79196CADB913F86
:104110000000134000006040D60D00202DE9F04162
:1041200004462B4D0846FEF787FA2946FEF7B3F8FA
:10413000FEF7ADFA274A284BFEF786F9FEF7EAFAB2
:10414000FEF7A5FA0022254BFEF7D7F807F034F961
:104150000722FEF75AFA0022214BFEF7CEF8FEF7AF
:104160007DFAC3B20020461EA50802461D492AE07A
:10417000B0EB940F03D200EB4007CA551EE006EBEC
:104180009407874208DAB0EB450F05D200EB4007F1
:10419000CB550F447A7013E006EB450787420ADAE5
:1041A00005EB4507874206D900EB4007CA550F4487
:1041B0007A70BB7005E000EB4007CB550F447B7075
:1041C000BA70401C80B2A042D2D3BDE8F08100009A
:1041D000B5B4B43F5DA79196CADB913F0000134090
:1041E00000006040D60D002031B54FF440711448F6
:1041F000FEF71FF800244FF47A751BE00A212046D1
:1042000000F020F8FFF730FE012001F0F5FABDF8CC
:10421000000000F061FBBDF80000C0EB00104000A2
:10422000B0FBF5F0401C01F0E7FA0A2001F0E4FAD7
:10423000641CA4B2BDF800008442DFD338BD000086
:10424000D60D002070B5FF24274B00EB4005042855
:1042500001D25C5570BD02D12348447370BD224E1B
:10426000A0F1050100EB40023244062901D294700E
:1042700070BDA0F10B0600210E2E01D291701CE042
:10428000A0F119061C2E2BD31C3E082E22D3083E6B
:10429000062EF3D3B61F132E1CD3133E1C2EEDD3C4
:1042A0001C3E0A2E1CD30A3E162EE7D3163E212EA4
:1042B00010D3213E052E03D294705470595570BD11
:1042C000A0F1B806032E0BD3F61E0E2ED6D30E3E4B
:1042D0000E2E02D294705170F0E7D7380E28EED22D
:1042E00091705170B5E70000D60D002030B5ED4C4F
:1042F000FF236218F0B301285BD0022862D00328A4
:1043000060D004286BD0052873D0062872D0072807
:1043100071D0082870D009286FD00A286ED00B28D9
:104320006DD00C286CD00D286BD00E286AD00F28C9
:1043300069D0102868D0112867D0122879D01328A6
:1043400027D182F85B3282F85E3282F8613282F8DD
:10435000643282F8673282F86A3282F86D3282F80B
:10436000703282F8733282F8763282F8793282F8CB
:104370007C3200E00EE082F87F3282F8823282F8EE
:10438000913282F88E3282F88B3282F8883282F84B
:10439000853230BD00EB400525440D44401CC0B2C1
:1043A00085F84B301C28F5D382F8C63082F8C3302C
:1043B00030BD82F8483082F8453002F8423F82F83A
:1043C0007E3030BD82F8BD3082F8BA3082F8B73026
:1043D00082F83F3082F83C3082F8393030BD635487
:1043E000D37093715372137382F8363082F89F3012
:1043F00030BD0BE01EE036E03CE054E070E092E0BF
:10440000A6E0C2E0D6E0EAE000E120E182F8C930AF
:1044100082F8A23082F8A53082F8A83082F8AB305A
:1044200082F8333082F8303082F82D3082F82A302A
:10443000DEE723E182F8AE3082F8B13082F8B430A2
:1044400082F8CC3082F8CF3082F8D23082F8D53082
:1044500002F80F3FD370937153721373D3731376B3
:1044600053759374C4E702F8D83FD37093715372B5
:104470001373BDE782F8E73082F8EA3082F8ED3056
:1044800082F8F03082F8F33082F8B63182F8B93130
:1044900082F8BC3182F8BF3182F8C23182F8C5316E
:1044A00082F8C831A4E782F8F63082F8F93082F851
:1044B000FC3082F8FF3082F8B33182F8B03182F8F4
:1044C000AD3182F8AA3182F8CB3182F8CE3182F850
:1044D000D13182F8D43182F8D73182F8DA3187E7E6
:1044E00082F8023182F8053182F8083182F80B3106
:1044F00082F8A73182F8A43182F8A13182F89E3186
:1045000082F8DD3182F8E03182F8E33182F8E63179
:1045100082F8E93182F8253282F8283282F82B328B
:1045200082F82E3264E782F80E3182F8113182F877
:10453000143182F89B3182F8983182F8EC3182F89C
:10454000EF3182F8F23182F8223282F81F324FE7DF
:1045500082F8173182F81A3182F81D3182F89531CC
:1045600082F8923182F88F3182F88C3182F8893169
:1045700082F8F53182F8F83182F8FB3182F8FE31A9
:1045800082F81C3282F8193232E782F8203182F840
:10459000233182F8263182F8293182F8863182F877
:1045A000833182F8803182F8013282F8043282F855
:1045B00007321DE782F82C3182F82F3182F8323130
:1045C00082F8353182F87D3182F87A3182F877319C
:1045D00082F80A3282F80D3282F8103208E782F847
:1045E000383182F83B3182F83E3182F8413182F82D
:1045F000743182F8133282F8163282F8313282F83E
:10460000343282F8373282F83A32F1E682F84431B5
:1046100082F8473182F84A3182F84D3182F871319F
:1046200082F86E3182F86B3182F8683182F8653138
:1046300082F8623182F83D3282F8403282F84332A9
:1046400082F8463282F8AC3282F8AF32D0E682F895
:10465000503182F8533182F85F3182F85C3182F850
:10466000493282F84C3282F84F3282F8A93282F80D
:10467000A63282F8A33282F8A032B9E682F8593124
:1046800082F8563182F8523282F8553282F8583226
:1046900082F89D3282F89A3282F8973282F8943208
:1046A000A6E60000D60D00202DE9F3410E464FF49A
:1046B000407739462448FDF7BCFD00244FF47A7555
:1046C00031462046FFF712FEFFF7CEFB012001F036
:1046D00093F8BDF8000000F0FFF8BDF80000C0EB53
:1046E00000104000B0FBF5F0401C01F085F81E20E2
:1046F00001F082F8641CA4B2142CE1D339461248AC
:10470000FDF797FD1424641EA0B23146FFF7EEFDBD
:10471000FFF7AAFB012001F06FF8BDF8000000F0E0
:10472000DBF8BDF80000C0EB00104000B0FBF5F076
:10473000401C01F061F81E2001F05EF82404240CF6
:10474000E1D1BDE8FC810000D60D00200B460146FA
:104750001846FDF755BD0B4601461846FDF750BDFE
:10476000FDF74EBD10B504464FF440711C48FDF7EF
:1047700060FD1B4804EB4402002181541044FF22D9
:1047800041708270C170027141718171C171027298
:1047900041728272C172017341738273C173027478
:1047A0004174817780F8222080F8261080F8481024
:1047B00080F84F1080F8532080F85A1080F85E205F
:1047C00080F8621080F8811080F87C1080F87D20DD
:1047D00080F8961080F89A2080F89E1010BD000096
:1047E000D60D0020F0B5154C00EB40050022FF2649
:1047F0002B19B0EB910F02D266555A701CE04FF0A6
:10480000FF3707EB910C844506DAB0EB510F03D26A
:1048100062555A709E70F0BD07EB510C8F0807EB84
:104820004707844501DA8742E6D87F1E8742F2DADD
:104830008842F0D262555E709A70F0BDD60D0020AD
:1048400010B504464FF440712248FDF7F2FC2149AF
:1048500004EB4403FF20C85400221944142C4A706E
:104860008A70C8700A714A718871CA710A72487276
:104870008A72CA7208734A738A73C8730A744A7454
:1048800017D901F83C2C01F83B0C01F83A2C01F83F
:10489000392C01F8380C01F8372C01F8362C01F8C6
:1048A000350C01F8342C01F8332C01F8320C01F8E6
:1048B000312C1E2C0CD901F85A2D4A708870CA7000
:1048C0000A7148718A71CA7108724A728A72C87212
:1048D00010BD0000D60D002038B5114C00212081FC
:1048E000104802F08BF91048416941F00101416123
:1048F000406900F001000090202002F0E9FFFEF77F
:10490000E3F8022000F08CFD0120A070608101B06E
:104910003023BDE83040054A0021024802F0FCB8CF
:10492000480000206C03002000100240D610002038
:1049300070B50D4606460024E2B229463046FEF721
:104940000DF9641CA4B2032CF6D370BD2DE9F04719
:10495000894607464FF4407841462048FDF769FCF8
:104960000024C7EB071046004FF47A75E0B24946C1
:10497000FFF7DEFFFFF778FA012000F03DFF384631
:10498000FFF7AAFFB6FBF5F0401C00F035FF1E2034
:1049900000F032FF641CA4B2142CE7D341460F4848
:1049A000FDF747FC1424641EE0B24946FFF7C0FF40
:1049B000FFF75AFA012000F01FFF3846FFF78CFF7F
:1049C000B6FBF5F0401C06F093F91E2000F014FF32
:1049D0002404240CE7D1BDE8F0870000D60D0020A8
:1049E00010B50446FFF740FA012000F005FF20460D
:1049F000FFF772FFC4EB041040004FF47A71B0FB74
:104A0000F1F0BDE81040401C00F0F6BE2DE9F04F7B
:104A1000F94B01280ED0022826D04FF0060B4FF09C
:104A20001C0E4FF00E0A032836D0042854D0052857
:104A300075D04EE00020451C002400EB4000C61855
:104A4000105D0F5DC01B68434FEAE07C00EB9C707B
:104A500007EBA0003055641CE4B2032CF0D3E8B29D
:104A60000428E8D3BDE8F08F0424002004EB4405BB
:104A7000EE18155C0F5CED1B4FEAE57C05EB9C75B1
:104A800007EBA5053554401CC0B20328F1D3641CC4
:104A9000E4B2052CE9D3E5E705245F46002504EBE5
:104AA000440C261F0CEB030912F8058011F805C011
:104AB000A8EB0C0808FB06F898FBF7F8C44409F8C3
:104AC00005C06D1CEDB2032DEED3641CE4B20B2CBB
:104AD000E4D3062844D01EE00B24574604EB440CD4
:104AE0000025A4F10A060CEB030900BF12F80580AB
:104AF00011F805C0A8EB0C0808FB06F898FBF7F8BE
:104B0000C44409F805C06D1CEDB2032DEED3641C3E
:104B1000E4B2192CE2D3072843D01EE0FFE71924A2
:104B2000774604EB440C0025A4F118060CEB0309AE
:104B300012F8058011F805C0A8EB0C0808FB06F870
:104B400098FBF7F8C44409F805C06D1CEDB2032DBD
:104B5000EED3641CE4B2352CE3D3082842D01DE028
:104B6000352404EB44060025A4F1340706EB0309C1
:104B7000565D11F805C0A6EB0C067E434FEAE678B9
:104B800006EB58760CEBE60609F805606D1CEDB2F5
:104B9000032DEDD3641CE4B23D2CE2D3092842D0AE
:104BA0001DE03D245F4604EB440C0025A4F13C06C7
:104BB0000CEB030912F8058011F805C0A8EB0C08EE
:104BC00008FB06F898FBF7F8C44409F805C06D1C0B
:104BD000EDB2032DEED3641CE4B2432CE3D30A28D8
:104BE00042D01DE043244FF0130C04EB4407002592
:104BF000A4F1420607EB030912F805804F5DA8EB0C
:104C0000070808FB06F898FBFCF8474409F805700C
:104C10006D1CEDB2032DEFD3641CE4B2562CE4D32B
:104C20000B2842D01DE05624774604EB440C0025A7
:104C3000A4F155060CEB030912F8058011F805C024
:104C4000A8EB0C0808FB06F898FBF7F8C44409F831
:104C500005C06D1CEDB2032DEED3641CE4B2722CC2
:104C6000E3D30C2843D01DE072244FF00A0C04EB70
:104C700044070025A4F1710607EB030912F805802B
:104C80004F5DA8EB070808FB06F898FBFCF84744C3
:104C900009F805706D1CEDB2032DEFD3641CE4B26E
:104CA0007C2CE4D30D2844D01EE07C244FF0160C5D
:104CB00004EB44070025A4F17B0607EB030900BFC2
:104CC00012F805804F5DA8EB070808FB06F898FB73
:104CD000FCF8474409F805706D1CEDB2032DEFD3C5
:104CE000641CE4B2922CE3D30E2844D01EE092243C
:104CF0004FF0210C04EB44070025A4F1910607EBCB
:104D0000030900BF12F805804F5DA8EB070808FBF8
:104D100006F898FBFCF8474409F805706D1CEDB2E5
:104D2000032DEFD3641CE4B2B32CE3D30F2865D07A
:104D30001EE0B3244FF0050C04EB44070025A4F15A
:104D4000B20607EB030900BF12F805804F5DA8EB20
:104D5000070808FB06F898FBFCF8474409F80570BB
:104D60006D1CEDB2032DEFD3641CE4B2B82CE3D379
:104D7000102862D01EE0B8244FF0030C04EB440767
:104D80000025A4F1B70607EB030900BF12F8058060
:104D90004F5DA8EB070808FB06F898FBFCF84744B2
:104DA00009F805706D1CEDB2032DEFD3641CE4B25D
:104DB000BB2CE3D311287FF46EAED720564600EB10
:104DC00040070024A0F1D60507EB030C12F804807D
:104DD0000F5DA8EB070808FB05F898FBF6F84744B9
:104DE0000CF80470641CE4B2032CEFD3401CC0B276
:104DF000E528E4D336E601E0D60D0020BB20564678
:104E000000EB40070024A0F1BA0507EB030C00BF3C
:104E100012F804800F5DA8EB070808FB05F898FB63
:104E2000F6F847440CF80470641CE4B2032CEFD38A
:104E3000401CC0B2C928E3D314E6C920564600EB93
:104E400040070024A0F1C80507EB030C12F804800A
:104E50000F5DA8EB070808FB05F898FBF6F8474438
:104E60000CF80470641CE4B2032CEFD3401CC0B2F5
:104E7000D728E4D3F6E530B505460124E0B229464B
:104E800000F006F8641CA4B2122CF7D330BD000069
:104E90002DE9F04FFD4A00EB400301EB43010128EF
:104EA0000ED0022828D04FF0060A4FF01C0B4FF00E
:104EB0000E0903283AD0042859D005287AD053E0A7
:104EC0000020441C002300EB40008518C81810F88F
:104ED000037C10F8066CB81B6043C71700EB977093
:104EE00006EBA000E8545B1CDBB2032BEED3E0B270
:104EF0000428E6D3BDE8F08F0423002003EB43042D
:104F0000A6180C1814F8035C14F8064C2D1BEF17A8
:104F100005EB977504EBA5043454401CC0B203287C
:104F2000EFD35B1CDBB2052BE7D3E3E70523564643
:104F3000002403EB43071D1F07EB020C0F1917F8A2
:104F4000038C17F8067CA8EB070808FB05F898FB0C
:104F5000F6F847440CF80470641CE4B2032CEDD35B
:104F60005B1CDBB20B2BE3D3062845D01EE00B23E2
:104F70004E4603EB43070024A3F10A0507EB020C9E
:104F80000F1917F8038C17F8067CA8EB070808FB25
:104F900005F898FBF6F847440CF80470641CE4B27A
:104FA000032CEDD35B1CDBB2192BE2D3072845D0D1
:104FB0001FE0FFE719235E4603EB43070024A3F13C
:104FC000180507EB020C0F1917F8038C17F8067C6D
:104FD000A8EB070808FB05F898FBF6F847440CF81F
:104FE0000470641CE4B2032CEDD35B1CDBB2352BE4
:104FF000E2D3082844D01EE0352303EB4305002408
:10500000A3F1340605EB020C0F1917F8035C17F82F
:10501000067CED1B75434FEAE57805EB587507EB09
:10502000E5050CF80450641CE4B2032CECD35B1CC3
:10503000DBB23D2BE1D3092843D01EE03D23564689
:1050400003EB43070024A3F13C0507EB020C0F1907
:1050500017F8038C17F8067CA8EB070808FB05F87F
:1050600098FBF6F847440CF80470641CE4B2032C77
:10507000EDD35B1CDBB2432BE2D30A2843D01DE007
:1050800043234FF0130C002403EB4306A3F1420526
:10509000B7180E1916F8038C16F8066CA8EB06085C
:1050A00008FB05F898FBFCF846443E55641CE4B246
:1050B000032CEED35B1CDBB2562BE4D30B2843D07E
:1050C0001EE056235E4603EB43070024A3F155057B
:1050D00007EB020C0F1917F8038C17F8067CA8EBE6
:1050E000070808FB05F898FBF6F847440CF804702D
:1050F000641CE4B2032CEDD35B1CDBB2722BE2D355
:105100000C2842D01DE072234FF00A0C002403EB60
:105110004306A3F17105B7180E1916F8038C16F89B
:10512000066CA8EB060808FB05F898FBFCF846445B
:105130003E55641CE4B2032CEED35B1CDBB27C2B2B
:10514000E4D30D2842D01DE07C234FF0160C002440
:1051500003EB4306A3F17B05B7180E1916F8038C71
:1051600016F8066CA8EB060808FB05F898FBFCF897
:1051700046443E55641CE4B2032CEED35B1CDBB208
:10518000922BE4D30E2842D01DE092234FF0210C45
:10519000002403EB4306A3F19105B7180E1916F886
:1051A000038C16F8066CA8EB060808FB05F898FBBC
:1051B000FCF846443E55641CE4B2032CEED35B1C61
:1051C000DBB2B32BE4D30F2862D01DE0B3234FF042
:1051D000050C002403EB4306A3F1B205B7180E1922
:1051E00016F8038C16F8066CA8EB060808FB05F801
:1051F00098FBFCF846443E55641CE4B2032CEED305
:105200005B1CDBB2B82BE4D310285FD01DE0B823C1
:105210004FF0030C002403EB4306A3F1B705B718C6
:105220000E1916F8038C16F8066CA8EB060808FB96
:1052300005F898FBFCF846443E55641CE4B2032C88
:10524000EED35B1CDBB2BB2BE4D311287FF46DAE35
:10525000D7204E46002300EB4005A0F1D604AF183E
:10526000CD1815F803CC15F8065CACEB050C0CFB5F
:1052700004FC9CFBF6FC6544FD545B1CDBB2032B79
:10528000EED3401CC0B2E528E4D333E6D60D0020AF
:10529000BB204E46002300EB4005A0F1BA04AF1836
:1052A000CD1815F803CC15F8065CACEB050C0CFB1F
:1052B00004FC9CFBF6FC6544FD545B1CDBB2032B39
:1052C000EED3401CC0B2C928E4D313E6C9204E4631
:1052D000002300EB4005A0F1C804AF18CD1815F865
:1052E00003CC15F8065CACEB050C0CFB04FC9CFB3A
:1052F000F6FC6544FD545B1CDBB2032BEED3401C73
:10530000C0B2D728E4D3F5E5704700000649002075
:10531000C8610648016941F004010161016941F079
:105320004001016170470000380300200020024066
:10533000064A0021D16106490A6942F002020A6167
:105340004861086940F04000086170473803002058
:1053500000200240044B0022DA61044A136943F042
:1053600001031361018070473803002000200240D0
:1053700014480022C168CB06134904D5CA6942F01B
:105380000202CA611022C3685B0705D5CB6943F0EE
:105390000103CB6142F00402C369DB0707D0CB698C
:1053A00043F00403CB61C16921F00101C161A2F5A1
:1053B0008071013901D0C2607047C16921F00101DB
:1053C000C1617047002002403803002070B50546D7
:1053D00000F0BAFB0646114C09E0681C07D025B165
:1053E00000F0B2FB801BA84201D9032070BDE06829
:1053F000C007F2D1E068800601D52020E060E068B7
:10540000C00605D4E069C00702D1E068400703D5B3
:10541000FFF7AEFF012070BD002070BD00200240EC
:105420002DE9F04700244FF03D09224B4FF01D0AB3
:105430003CE000BF204E04EB44029119B75C4D786C
:105440008E78002101E008290CD25FEA056C01EB9F
:10545000C20802D523F8189001E023F818A06D06C1
:105460002D0E1DE0A1F1080CBCF1080F0CD25FEA73
:10547000076C01EBC20802D523F8189001E023F86D
:1054800018A07F063F0E0BE05FEA066C01EBC20836
:1054900002D523F8189001E023F818A07606360EFE
:1054A000491C89B21829CED3641CA4B28442C1D34A
:1054B000BDE8F087D6100020D60D002001680A68EC
:1054C00022F00E020A6001680A6822F001020A60F6
:1054D00090F84020C36B012101FA02F25A6080F873
:1054E0002110002180F820100846704710B590F870
:1054F00021100024022903D00421816301243DE00E
:1055000001680A6822F00E020A6001680A6822F047
:1055100001020A601A4A0168914201D1012121E089
:10552000174A1432914201D110211BE0144A28324B
:10553000914201D1891515E0114A3C32914201D1C5
:1055400089140FE00E4A5032914202D14FF480315B
:1055500008E00B4A6432914202D14FF4801101E01D
:105560004FF08071064A083A5160012180F82110FD
:10557000002180F82010416B01B18847204610BD02
:10558000080002402DE9F05FC16B0C6801680B68F0
:10559000D0F840C0042202FA0CF2494DDFF824A1F1
:1055A000494E4A4FDFF828B1DFF828E122422CD0DB
:1055B0005A072AD50A68920603D40A6822F0040220
:1055C0000A600168A94201D1042219E0514501D1C4
:1055D000402215E0B14202D14FF4806210E0B9429E
:1055E00002D14FF480420BE0594502D14FF48022A2
:1055F00006E0714502D14FF4800201E04FF0806275
:105600002F4908394A60C16A3BE04FF0020808FAA6
:105610000CF818EA040F4FF000094FF0010235D0E2
:105620005FEA837832D50B689B0605D40B6823F0BC
:105630000A030B6080F821200168A94201D10222EF
:1056400019E0514501D1202215E0B14202D14FF4B9
:10565000007210E0B94202D14FF400520BE05945FC
:1056600002D14FF4003206E0714502D14FF400122E
:1056700001E04FF00072124908394A6080F820902A
:10568000816A00291AD0BDE8F05F0847082505FAAD
:105690000CF5254212D01B0710D50B6823F00E0322
:1056A0000B6090F84010C36B02FA01F159608263FD
:1056B00080F8212080F82090016BE2E7BDE8F09FA0
:1056C000080002401C00024030000240440002403A
:1056D000580002406C00024030B548B308C8154974
:1056E00014221944B1FBF2F18900C16312498163AC
:1056F000022141771A6843F6F0718A43D0E9001419
:105700002143D0E902452C432143046921434469E4
:105710002143846921431143196000214162816260
:10572000C16201634163012242770177084630BDBF
:10573000012030BDF8FFFDBF0000024010B590F819
:1057400020400023012C07D0012480F8204090F84D
:105750002140012C02D008E0022010BD59B10129DE
:105760000BD002290BD003290BD00123002180F894
:105770002010184610BD8262F8E7C262F6E70263A5
:10578000F4E74263F2E770B5044690F82000002584
:1057900001280CD0012084F8200094F8216000201A
:1057A000012E06D084F820000225284670BD022074
:1057B00070BD022684F82160A0632068066826F088
:1057C000010606602046FDF7ABF9E06A0028206874
:1057D000016802D041F00E0106E021F004010160F1
:1057E0002068016841F00A0101602068016841F009
:1057F00001010160D9E7000070B5044600F0A4F98A
:105800000546601C02D004480078044400F09CF96E
:10581000401BA042FAD370BD000000202DE9F047E4
:10582000054626480F460126017E01290FD0012199
:10583000814601762868DFF888804CF250340228CF
:1058400008D0A2462046FFF7C1FDA8B131E00220F2
:10585000BDE8F0872046FFF7B9FD08BB0120FFF740
:1058600055FD2046FFF7B2FDD8F81010064621F08E
:105870000401C8F810101CE04FF0FF303860AC682D
:1058800011E02046FFF754FD5046FFF79FFDD8F882
:105890001010060021F00201C8F8101001D03C6081
:1058A00007E004F58064D5E9020100EB8120A04205
:1058B000E7D8002189F818103046C9E738030020DE
:1058C000002002400348016941F08001016100208D
:1058D00070470000002002402DE9F05F07461C4899
:1058E00088460024017E15461E46012909D0012163
:1058F000814601764CF2503A5046FFF767FD18B1E9
:1059000022E00220BDE8F09F012F02D0022F00D03C
:105910000427D346DFF83CA0220128463146FCF795
:105920004DFC81B208EB4400FFF714FD5846FFF729
:105930004DFDDAF8102022F00102CAF8102018B943
:10594000641CE4B2BC42E7D3002289F81820D9E7EE
:105950003803002000200240064900200A69120690
:1059600007D5054A4A60054A4A600969090600D513
:10597000012070470020024023016745AB89EFCD2D
:105980002DE9F84FDFF890A100220AF1040B14462C
:1059900001274FF00F090BF1040E00BF0B6807FA47
:1059A00004F52B40AB4274D1DFF870C14E68A6EB12
:1059B0000C0866452BD00DDC032E34D005DC36B345
:1059C000012E19D0022E2FD11BE0112E16D0122E2F
:1059D0002AD119E0B8F5881F19D006DCB8F5803F48
:1059E00015D0B8F5801F1FD111E0B8F5001F0ED0FB
:1059F000B8F5041F18D10AE0CA6815E0CA68121D7C
:105A000012E0CA6808320FE0CA680C320CE08A68FB
:105A10002AB1012A4FF0080203D0456104E00422B4
:105A200002E0056100E00022FF2B01D8064601E0FC
:105A300000F104064FEA840501D9A5F12005D6F846
:105A400000C009FA05F82CEA080C02FA05F54CEA40
:105A5000050CC6F800C04D68ED0057D5304DAE6955
:105A600046F00106AE61AD6924F0030605F00105BC
:105A700000952C4D06EB050CDCF80850A6074FEA04
:105A8000167809FA08F6B543274EB04202D100262F
:105A900010E03BE0254EB04201D101260AE0244E41
:105AA000B04201D1022605E0224EB04201D10326C8
:105AB00000E0042606FA08F62E43CCF808604D688C
:105AC000DAF80060ED03554601D51E4300E09E4321
:105AD0002E604D68DBF80060AD035D4601D51E43C6
:105AE00000E09E432E604D68DEF80060ED027546D2
:105AF00001D51E4300E09E432E604D68AD020E4D61
:105B00002E6801D51E4300E09E432E60641C102CBD
:105B1000FFF444AFBDE8F88F00040140000011100D
:105B2000001002400000014000080140000C01404C
:105B300000100140001401400C0401400AB1016151
:105B400070470904FBE700000148806870470000C7
:105B5000000000200248816802781144816070478B
:105B600000000020074810B5016841F010010160F5
:105B7000032000F095F80F2000F006F800F024F85C
:105B8000002010BD0020024070B50D4D04464FF4BA
:105B90007A712878B1FBF0F00A490968B1FBF0F09E
:105BA00000F053FD48B9102C07D200222146501EA8
:105BB00000F056F800206C6070BD012070BD000040
:105BC000000000203C0000201D4808B5816941F01C
:105BD00001018161806900F001000090032000F064
:105BE0005FF8002211466FF00B0000F039F8002238
:105BF00011466FF00A0000F033F8002211466FF0F2
:105C0000090000F02DF800221146501F00F028F87E
:105C100000221146101F00F023F800220F21901ED1
:105C200000F01EF800220F21501E00F019F8054860
:105C3000416821F0E06141F00071416008BD000061
:105C4000001002400000014000F01F0201219140BD
:105C50004009800000F1E020C0F80011704700000A
:105C6000F0B40E4B1B680C46C3F30223C3F10705C7
:105C7000042D00D90425191D072901D2002300E0B5
:105C8000DB1E012606FA05F1491E214099409E407F
:105C9000761E16403143F0BC01F060BD0CED00E013
:105CA000064900F0070208684FF6FF03184040EA73
:105CB0000220034A10430860704700000CED00E02A
:105CC0000000FA05014901200862704700000E42F9
:105CD00010B529A401461DCC86B08DE81D002AA070
:105CE0002A4C006804900020012923D002293AD0D0
:105CF00010291DD161682268D20119D5C1F38342F0
:105D0000C9031DF8020009D5616804AAC1F3404126
:105D1000515C1F4AB2FBF1F1484301E01D49484381
:105D20006168490204D440005FF00301B0FBF1F068
:105D300006B010BD226AC2F30121012903D19207E6
:105D400001D5C803F4E7022905D1626A920702D59A
:105D500049F64040ECE70329EAD121688903E7D5F9
:105D60004FF22440E4E700F04DF96168C1F381315E
:105D7000491C4900DAE70000020304050607080988
:105D80000A0B0C0D0E0F1010010200000010024053
:105D900000127A0000093D002DE9F843054600781D
:105DA000354CC00754D0E0690026C00008D4E06933
:105DB00040F08050E061E069012600F080500090E2
:105DC0002E480168C90512D40168804641F48071EB
:105DD0000160FFF7B9FE074605E000BFFFF7B4FE1C
:105DE000C01B642823D8D8F80000C005F6D5206A67
:105DF00010F4407021D0A98801F4407181421CD078
:105E0000206A1F49012220F440700A6000220A60C3
:105E10002062C00711D0FFF797FE074641F288388D
:105E200008E000BFFFF790FEC11B414502D90320E7
:105E3000BDE8F883206A8007F4D5206A696820F4F9
:105E40004070084320621EB1E06920F08050E0619C
:105E50002878800705D56068A96820F44040084389
:105E600060602878C00605D56068E96820F4800085
:105E7000084360600020DBE7001002400070004033
:105E8000400442422DE9F047DFF83C8105460E46CA
:105E9000D8F8000000F00700B0420CD2D8F800108B
:105EA00021F007013143C8F80010D8F8000000F0D5
:105EB0000700B04263D12878444C800705D560685C
:105EC000A96820F0F000084360602878C00745D03A
:105ED0006868012816D02168022816D08907002991
:105EE0004DDA616821F0030101436160FFF72CFE88
:105EF0006968074641F2883001290FD0022981469E
:105F000019D027E021688903E9E78901E7E700BFA5
:105F1000FFF71AFEC11B494501D918E081466068A8
:105F2000C0F381000128F3D118E000BFFFF70CFE99
:105F3000C11B49450BD86068C0F381000228F5D128
:105F40000CE000BFFFF700FEC11B494502D903204A
:105F5000BDE8F087606810F00C0FF3D1D8F800109E
:105F6000404601F00701B1420BD9016821F0070159
:105F700031430160006800F00700B04201D0012009
:105F8000E6E72878400705D56068E96820F4E06016
:105F9000084360602878000706D56068296920F406
:105FA000605040EAC100606000F03CF86168084A57
:105FB000C1F30311515CC840064908600F20FFF788
:105FC000E3FD0020C4E70000002002400010024072
:105FD00028BC00083C000020014800687047000011
:105FE0003C0000200448054900684968044AC1F3A0
:105FF0000221515CC84070473C0000200010024064
:1060000038BC00080448054900684968044AC1F3DF
:10601000C221515CC84070473C0000200010024083
:1060200038BC000812A185B00FC98DE80F0014A07C
:10603000144A006804905168134801F00C03042BC3
:1060400010D0082B0ED1C1F38343C9031DF8030000
:106050000AD5516804AAC1F34041515C0A4A504331
:10606000B0FBF1F005B0704708494843FAE700007B
:1060700002030405060708090A0B0C0D0E0F101089
:10608000010200000010024000127A0000093D00E9
:106090002DE9F84F04460078B94DC00748D068682C
:1060A000C0F38100012807D06868C0F3810002288E
:1060B00009D16868C00306D52868800338D56068B0
:1060C00000286FD034E06068B0F5803F0BD010B18D
:1060D000B0F5A02F11D0286820F4803028602868FF
:1060E00020F4802002E0286840F480302860606856
:1060F00088B1FFF729FD064609E0286840F48020B2
:106100002860F0E7FFF720FD801B642875D8286819
:106110008003F7D50CE0FFF717FD064605E000BF4A
:10612000FFF712FD801B6428F0D828688003F7D49D
:106130002078944E80074FF001094FF000083BD5BE
:10614000686810F00C0F07D06868C0F3810002285F
:1061500009D16868C00306D42868800714D520696F
:1061600001281FD110E02069B0B1C6F80090FFF7F8
:10617000EBFC074605E000BFFFF7E6FCC01B02286A
:10618000C4D828688007F7D52868616920F0F8002E
:1061900040EAC10028600FE0C6F80080FFF7D4FC99
:1061A000074606E0E9E000BFFFF7CEFCC01B02286F
:1061B00023D828688007F7D4207800072CD57248A8
:1061C000A169D9B1C0F80090FFF7BEFC074604E012
:1061D000FFF7BAFCC01B02280FD8686A8007F7D502
:1061E0006A484FF4FA510068B0FBF1F0009000BF2C
:1061F0000098411E0091FAD20EE080E0C0F80080C5
:10620000FFF7A2FC074604E0FFF79EFCC01B022834
:1062100075D8686A8007F7D42078400760D5E869A8
:106220000027C00008D4E86940F08050E861E869C0
:10623000012700F08050009055480168C90513D42B
:106240000168834641F480710160FFF77DFC82465E
:1062500006E000BFFFF778FCA0EB0A0064284ED8E8
:10626000DBF80000C005F5D5E06801280AD008B1C8
:10627000052813D0286A20F001002862286A20F03F
:10628000040002E0286A40F001002862E06841F260
:10629000883B98B1FFF758FC82460BE0286A40F033
:1062A00004002862EEE700BFFFF74EFCA0EB0A01F6
:1062B00059455AD8286A8007F6D50CE0FFF744FC08
:1062C000824605E0FFF740FCA0EB0A0159454CD897
:1062D000286A8007F6D41FB1E86920F08050E86191
:1062E000E06988B36968C1F38101022945D00228B9
:1062F000C6F8608004D0FFF727FC044638E034E09D
:10630000FFF722FC074604E0FFF71EFCC01B022833
:106310002BD828688001F7D4206AB0F5803F05D1DA
:106320006868A16820F4003008436860D4E9080177
:106330000843696821F4741108436860C6F86090E6
:10634000FFF702FC044606E015E000BFFFF7FCFB88
:10635000001B022809D828688001F7D50BE000BF90
:10636000FFF7F2FB001B022802D90320BDE8F88FDB
:1063700028688001F4D40020F8E70120F6E7000047
:106380000010024000004242800442423C000020D3
:1063900000700040024850F8210080B270470000B1
:1063A000006C0040024800EB810091B20160704730
:1063B000006C004070B5040003D0607C002610B172
:1063C00005E0012070BD2674204600F043F802204D
:1063D0006074204600F010F9042578BB204601F0D7
:1063E000D6F958BB2068416821F007014160A068D8
:1063F00020B11748016821F0010101601448001F15
:106400000168A26821F46071114301606068411C59
:1064100004D10120FFF75CFC80B1401E21688A682E
:1064200022F00F0242EA10428A602168CA6860F3D3
:106430000F02CA60204601F0C5F908B16574C0E7D3
:10644000E67301206073A0736074002070BD0000CB
:10645000306C004008B50068084988420DD1FFF74C
:1064600031FC0748C16941F00061C161C06905495B
:1064700000F0006000900120086008BD0028004086
:10648000001002403C0442422DE9F0410D46040058
:106490003BD0C5B3207C01283AD04FF0010884F8E6
:1064A000108002206074E87872B301F067F9E0733D
:1064B000687801F063F96073A87801F05FF9A07360
:1064C000C2B2617BE07B01F0AFF9207328702046F7
:1064D00001F09AF94FF46161B0FBF1F10025182940
:1064E0002DD91822B1FBF2F1A1EB011101EB410111
:1064F000C1EB011100EBC1163146204601F0D3F982
:106500000427C8B90BE000E004E00120BDE8F081F9
:106510000220FBE7E07368786073A878CFE7204635
:1065200001F06BF9411C0AD0B04208D2064901447F
:10653000204601F0A4F910B167742574E5E784F8EA
:10654000118025740020E1E7805101002DE9F04120
:106550000D46040024D01DB3207C012823D04FF029
:10656000010884F81080022060742878EAB101F0F4
:1065700005F94FF4616100FB01F6687801F0FEF85F
:10658000C0EB001006EB8006A87801F0F7F835188C
:106590002946204601F087F90026042710BB0FE0AA
:1065A0000120BDE8F0810220FBE74FF46161484320
:1065B0006978C1EB011100EB8100A9784518E7E784
:1065C0002068416821F005014160204601F015F97D
:1065D000411C0AD0A84208D206490144204601F0D5
:1065E0004EF910B167742674DAE784F811802674C6
:1065F0000020D6E78051010070B504000AD0206861
:10660000416821F008014160FFF79EFA05464FF40A
:106610007A7608E0012070BDFFF796FA401BB04281
:1066200001D9032070BD206840680007F4D5002020
:1066300070BD4FF0E0210428086903D020F0040069
:106640000861704740F00400FAE710B5401EB0F151
:10665000807F01D3012010BD4FF0E02460610F2145
:10666000601701F07BF80020A06107202061002066
:1066700010BD7047704730B590F83C20012A20D0FB
:10668000012280F83C20022380F83D3003685C68DA
:1066900024F070045C6003685C680D682C435C60E7
:1066A00003689C6824F080049C6003689C684968C7
:1066B0000C439C6080F83D20002180F83C10084687
:1066C00030BD022030BD10B5040003D094F83D0069
:1066D00010B107E0012010BD002084F83C002046E6
:1066E00000F00CF8022084F83D00211D206801F024
:1066F0006FFA012084F83D00002010BD38B5054632
:106700000068B0F1804F2BD11648C16941F00101FA
:10671000C161C069154C00F0010000901248206072
:106720001020606000208021C4E90201490021613D
:106730008900C4E90510E0612046FEF7CDFF18B1DD
:10674000A0210BA003F0CAF96C62002205211C20D5
:106750006562FFF785FABDE838401C20FFF774BA80
:1067600038BD00000010024058000240AC03002079
:106770002E2E2F5372632F73746D333266317878F7
:106780005F68616C5F6D73702E63000070B50446C6
:1067900090F83C00012817D0012584F83C500220D5
:1067A00084F83D002068826822F0770222F47F425C
:1067B00082600868502837D00DDC202859D005DCCD
:1067C00088B3102841D151E0022070BD302853D049
:1067D00040283AD13FE060282ED070280BD0B0F589
:1067E000805F03D0B0F5005F2FD110E02068816892
:1067F00021F0070115E0CB68D1E90121206801F003
:106800004FFA2168886840F0770088601DE0CB6807
:10681000D1E90121206801F043FA2068816841F440
:106820008041816011E01EE0CA684968206801F07B
:10683000EBFA5021206806E0CA684968206801F038
:10684000F4FA6021206801F035FA84F83D50002008
:1068500084F83C0070BDCA684968206801F0D4FA29
:1068600040212068EFE700212068ECE71021206834
:10687000E9E720212068E6E730212068E3E7704758
:10688000704770B50446006801694FF00005C943C0
:10689000890715D4C168C943890711D4E91E01616C
:1068A00001202077206880698007204602D0FFF70A
:1068B000E7FF04E000F0AAF8204600F02CF9257765
:1068C00020680169C943490717D4C168C94349070A
:1068D00013D46FF0040101610220207720688069E1
:1068E00010F4407F204602D0FFF7CAFF04E000F01A
:1068F0008DF8204600F00FF9257720680169C9431B
:10690000090716D4C168C943090712D46FF00801FA
:106910000161042020772068C0698007204602D0EA
:10692000FFF7AEFF04E000F071F8204600F0F3F846
:10693000257720680169C943C90617D4C168C943CE
:10694000C90613D46FF01001016108202077206878
:10695000C06910F4407F204602D0FFF791FF04E0A9
:1069600000F054F8204600F0D6F825772068016939
:10697000C943C90708D1C168C943C90704D1891EE1
:106980000161204600F07CF920680169C9430906CD
:1069900009D4C168C943090605D46FF080010161BB
:1069A0002046FFF766FE20680169C943490609D4FD
:1069B000C168C943490605D46FF040010161204612
:1069C00000F05FF920680169C94389060BD4C168EA
:1069D000C943890607D46FF0200101612046BDE854
:1069E0007040FFF747BE70BD1FB50068B0F1804F23
:1069F00008D10120009002200190039069460248CE
:106A0000FEF7BEFF1FBD000000080140704770B5D3
:106A1000044690F83C000D4601280DD0012684F86C
:106A20003C60022084F83D0042B1042A18D0082AB4
:106A30002AD00C2A4DD139E0022070BD206801F027
:106A400041F92068816941F008018161206881690C
:106A500021F004018161206881692A69114311E0F4
:106A6000206801F057F92068816941F40061816173
:106A70002068816921F480618161206881692A69C7
:106A800041EA0221816124E0206801F06FF9206869
:106A9000C16941F00801C1612068C16921F00401A8
:106AA000C1612068C1692A69114311E0206801F0C1
:106AB00089F92068C16941F40061C1612068C16938
:106AC00021F48061C1612068C1692A6941EA02211B
:106AD000C16184F83D60002084F83C0070BD10B5B1
:106AE000040003D094F83D0010B107E0012010BD70
:106AF000002084F83C00204600F00CF8022084F8C6
:106B00003D00211D206801F063F8012084F83D005C
:106B1000002010BD7047704770B5044690F83D00E6
:106B200016460D46022805D094F83D00012805D1EF
:106B30000EB903B170BD022084F83D002C482D49E8
:106B400035B1042D13D0082D34D00C2D1ED140E0CA
:106B5000626A9062606A0163226831463432606A18
:106B6000FEF711FE2068C16841F400710DE0A26AD1
:106B70009062A06A0163226831463832A06AFEF74B
:106B800002FE2068C16841F48061C160012229468B
:106B9000206801F053F818492068884203D1416CFD
:106BA00041F4004141642068016841F00101016045
:106BB000002070BDE26A9062E06A0163226831469B
:106BC0003C32E06AFEF7DFFD2068C16841F40061F5
:106BD000DBE7226B9062206B016322683146403212
:106BE000206BFEF7D0FD2068C16841F48051CCE7EE
:106BF000537C0008917C0008002C014010B502680D
:106C0000044631B1042908D008292FD00C2908D115
:106C100030E0D06820F4007002E0D06820F480609A
:106C2000D0600022206801F009F8144B41F21111E4
:106C300020688A10984209D1036A0B4206D1036A80
:106C4000134203D1436C23F4004343642068036A76
:106C50000B4206D1016A114203D1016821F0010102
:106C60000160012084F83D00002010BDD06820F4B0
:106C70000060D5E7D06820F48050D1E7002C0140B7
:106C80007047704710B504460068416994F8392090
:106C9000C1F3C011212A0BD151B1416921F080010A
:106CA0004161206B08B1FEF709FC204601F049F96B
:106CB0002068416994F83A20C1F38011222A0BD14F
:106CC00051B1416921F040014161606B08B1FEF7AB
:106CD000F5FB204601F027F9002010BD70470000A9
:106CE00070B5026804461068D168536910F00F0F40
:106CF00050D003F0010501F4907635435DD0C20712
:106D000005D0CA0503D5E26B42F00102E2634207F7
:106D100005D5DA0703D0E26B42F00202E263820794
:106D200005D5DA0703D0E26B42F00402E263020702
:106D300005D5DA0703D0E26B42F00802E263E26BAA
:106D4000002A33D0800604D5880602D5204601F0FB
:106D500001F920684069E16BC0F38010090700D495
:106D600028B3204601F0DFF82068416949061AD5AA
:106D7000416921F040014161606BA0B11B49416351
:106D8000606BFEF7B3FB002810D0606B416BBDE871
:106D900070400847830610D58B060ED52046BDE807
:106DA000704001F0D7B82046FFF798FF70BD20462D
:106DB000FFF794FF0020E06370BD030606D50B06C5
:106DC00004D52046BDE8704001F0C8B94006F3D5AF
:106DD0004806F1D5D168204621F04001D16020213C
:106DE00084F8391000F0D2F970BD00004F7E000821
:106DF00070B5040004D094F83900002510B106E005
:106E0000012070BD84F83850204600F023F824207B
:106E100084F839002068C16821F40051C16020461F
:106E200001F0E4F82068016921F4904101612068D3
:106E3000416921F02A0141612068C16841F4005193
:106E4000C160E563202084F8390084F83A0000200E
:106E500070BD0000F0B5064603684748DFF814C16E
:106E600002210322454D0715002485B0634512D148
:106E7000836943F4804383618069039200F4804016
:106E800004900802CDE9000169462846FEF778FD26
:106E9000CDE9007416E0DFF8E8C0634519D1C36995
:106EA00043F40033C361C069039200F400300490DE
:106EB0000420CDE9000169462846FEF761FD08205F
:106EC000CDE90004694628460294FEF759FD05B055
:106ED000F0BD2C4DAB42FAD1C36943F48023C361AA
:106EE000C069CDE9007100F48020CDE90320264D72
:106EF00069462846FEF744FDE814CDE900046946DA
:106F000028460294FEF73CFD214D20488027C5E924
:106F10000004C5E902472C616C61AC612846EC6154
:106F2000FEF7DAFB20B140F239111AA002F0D6FDCB
:106F300075636E6215481E4D143801C5102091C549
:106F40001B4845F810496C61AC61EC61FEF7C4FB6D
:106F500020B140F249110FA002F0C0FD35630022BC
:106F6000052127206E62FEF77BFE2720FEF76CFED0
:106F7000ADE7000000380140001002400008014069
:106F80000044004000480040000C01403000024036
:106F9000B00400202E2E2F5372632F73746D333282
:106FA000663178785F68616C5F6D73702E63000086
:106FB000F4040020F8B5044690F83A0020283CD1AB
:106FC000C1B3BAB394F83800012836D0012084F850
:106FD0003800A162A2850025E563222084F83A00EA
:106FE000636B17489862636B1648D862636B1648E8
:106FF0001863606B134645630846666B216802465A
:107000003046091DFEF7BFFB20680168416800910A
:1070100084F83850C16841F48071C16020684169CA
:1070200041F0010141612068416941F04001416145
:107030000020F8BDFFE70120FBE70220F9E7000090
:10704000A97E0008E57E00085F7E00087047704753
:107050002DE9F843044690F839001F4616460D46C0
:10706000202850D1A5B19EB194F8380001284AD00B
:10707000012084F838004FF00008C4F83C8021203B
:1070800084F83900FEF760FDA6848146E68426E098
:107090000120BDE8F883E08C401EE084A0684B46E8
:1070A000B0F5805F4FF000024FF08001204600975E
:1070B00003D001F084F8E8B90DE001F080F8C8B918
:1070C00028882168C0F308004860206908B16D1C59
:1070D00005E0AD1C03E0216815F8010B4860E08C69
:1070E0000028D8D14B46002240212046009701F0CD
:1070F00066F808B10320CCE7202084F8390084F832
:1071000038800020C5E70220C3E7000070B50446C0
:1071100090F83900202830D169B362B394F8380070
:1071200001282AD0012084F838002162A284E28458
:107130000025E563212084F83900236B104898620C
:10714000236B1048D862236B0F481863206B1346DB
:1071500045632668206B321DFEF715FB21686FF032
:107160004000086084F838502068416941F080018F
:107170004161002070BD012070BD022070BD000083
:10718000EF7E00081D7F00085F7E00087047704793
:107190002DE9F05F0646DDE90A45334899469046F9
:1071A0000F4682460346DFF8C4B000222046294637
:1071B000FBF798FA4FF0000205D2534620462946C5
:1071C000FBF73CF90BE0002320462946FBF772FA57
:1071D00007D20022534620462946FBF78EF8044684
:1071E0000D4600225B4620462946FBF763FA08D28B
:1071F00042464B4630463946FBF723F922462B469A
:1072000023E000221A4B20462946FBF753FA03D20B
:1072100040464946BDE8F09FDFF858A0002253469B
:1072200020462946FBF746FA1BD222462B46002071
:107230005146FBF703F905460C4642464B4630469D
:107240003946FBF7FEF82A462346FBF7FDF80022F5
:107250005B46FBF76BF932463B46BDE8F05FFBF758
:107260004CB830463946D5E70080764000004E40A5
:107270000080664000006E402DE9FF4F87B06849EE
:10728000DDE914ABDDE916891A98644C00EB400087
:107290000390084402900022624B40464946FBF7A7
:1072A00009FA0AD2DDE9180100222346FBF725F886
:1072B00042464B46FBF7C8F80DE0DDE918230020F5
:1072C0002146FBF7BBF842464B46FBF7BDF8DDE92C
:1072D0001823FBF712F804460D46012240464946A2
:1072E000FBF793F922462B46FBF7A8F806460F4614
:1072F000DDE9180100221346FBF7DCF94FF000022C
:1073000017D1494B40464946FBF79EF8FBF7A6F9D3
:10731000C1B20998017008980170079801700020A7
:10732000029A1154401C80B20328F9D30BB0BDE877
:10733000F08FDFF8F880504643465946FAF7DDFFF4
:1073400081460591CDE9009122462B4630463946CB
:10735000FFF71EFF0022344BFBF776F8FBF77EF9B0
:10736000079922462B46087030463946CDE900ABD6
:10737000FFF70EFF00222C4BFBF766F8FBF76EF9C8
:10738000089900224346087050465946FBF756F8C4
:107390008046CDE90081049122462B46304639468D
:1073A000FFF7F6FE0022204BFBF74EF8FBF756F9ED
:1073B000099922462B46087005993046CDE900917F
:1073C0003946FFF7E5FE0022174BFBF73DF8FBF7C8
:1073D00045F91349039A2B468854224630463946CC
:1073E000CDE900ABFFF7D4FE00220F4BFBF72CF8E2
:1073F000FBF734F9029922462B464870049930462F
:10740000CDE900813946FFF7C3FE0022064BFBF7AA
:107410001BF8FBF723F90299887087E70000F03F1B
:10742000D60D00200000E03F00E06F4000005E400D
:10743000FEE70000114808B5416941F001014161D2
:107440004069002200F00100009005210C20FEF7A9
:1074500007FC0C20FEF7F8FB002205210D20FEF7AB
:10746000FFFB0D20FEF7F0FB002205210F20FEF7A9
:10747000F7FBBDE808400F20FEF7E6BB0010024016
:10748000F0B5214885B0816941F0100181618169C1
:1074900001F010010491816941F02001816181694D
:1074A00001F020010491816941F004018161816949
:1074B00001F004010491816941F008018161806952
:1074C000124E00F0080004900022F0213046FEF732
:1074D00035FB0F4F0022F3213846FEF72FFBF0203B
:1074E0000124CDE900040225694603953046FEF7E4
:1074F00047FAF320CDE90004694603953846FEF7C4
:107500003FFA05B0F0BD0000001002400008014045
:10751000000C01401CB52448224901604FF0FF31A6
:1075200041604FF480718160FEF744FF18B114216F
:107530001EA002F0D3FA01211B48FEF72BFF43F2F5
:10754000F224A0422DD011208DF8040050208DF897
:10755000050000208DF80600012201A91248FEF75F
:10756000F5FF18B1202111A002F0B8FA02208DF821
:10757000000006208DF8010001208DF8020019207E
:107580008DF80300012269460748FEF77DFF18B118
:107590002A2106A002F0A2FA224601210248FEF7A3
:1075A00001FF1CBD00280040580300202E2E5C4225
:1075B00053505C6273705F7274632E63000000004E
:1075C00010B523488EB04FF080410024C0E900146C
:1075D0005921C0E9024104618461FFF774F818B1D0
:1075E00019211CA002F07AFA4FF48050079007A9E5
:1075F0001748FFF7CBF818B11F2116A002F06EFA5A
:107600001348FFF76CFA18B1242112A002F066FAB1
:107610000B940BA90E480C94FFF72DF818B12B21F1
:107620000CA002F05BFA6020CDE900040294002275
:10763000694607480494FFF7EAF918B1342105A018
:1076400002F04CFA0248FFF7CFF90EB010BD00006F
:107650006C0300202E2E5C4253505C6273705F748A
:10766000696D2E63000000000D4810B50B490160E4
:107670004FF4E1314160002181600C22C160C0E91A
:1076800004128161C161FFF7B3FB002805D0BDE89A
:107690001040202103A002F021BA10BD00380140A3
:1076A000F00300202E2E5C4253505C6273705F75B5
:1076B000736172742E6300000D4810B50B490160B0
:1076C0004FF4E1214160002181600C22C160C0E9DA
:1076D00004128161C161FFF78BFB002805D0BDE872
:1076E0001040332103A002F0F9B910BD004400405E
:1076F000300400202E2E5C4253505C6273705F7524
:10770000736172742E6300000D4810B50B4901605F
:107710004FF4E1214160002181600C22C160C0E989
:1077200004128161C161FFF763FB002805D0BDE849
:107730001040462103A002F0D1B910BD004800401E
:10774000700400202E2E5C4253505C6273705F7593
:10775000736172742E630000FEE770470907090E1B
:10776000002806DA00F00F0000F1E02080F8141D78
:10777000704700F1E02080F800147047010901EB28
:10778000810100F00F0000EB4100C0B2704770B5FE
:107790000446FEF7D9F905464FF47A7606E0FEF77F
:1077A000D3F9401BB04201D9032070BD2068406866
:1077B0008006F4D52068416841F010014160002046
:1077C00070BD000070B504460068416821F01001EA
:1077D0004160FEF7B9F905464FF47A7607E000BF3D
:1077E000FEF7B2F9401BB04201D9032070BD2068FA
:1077F00040688006F4D5002070BD0168086A496AB7
:1078000089B241EA00407047006881698AB2C16963
:107810008BB2816989B28A4203D0C06961F31F408B
:10782000704743EA02407047F0B56424C1EBC103DE
:107830000927A500072603EB01130329B3FBF7F182
:1078400000F5FA60114401440AD2401EB0FBF4F284
:1078500001EB9001B0FBF5F0891A0844001D08E027
:10786000B0FBF4F201EB9001B0FBF5F0891A08448B
:10787000801CB0FBF6F106FB1100C0B2F0BD70B584
:107880000D4606460024FFF782FF48B93168280CF0
:1078900008623168A8B248623046FFF793FF00B132
:1078A0000124204670BD70B50D4606460024FFF742
:1078B0006EFF48B93168280C88613168A8B2C86188
:1078C0003046FFF77FFF00B10124204670BD000065
:1078D00038B51349CA6942F00102CA61C969124C3C
:1078E00001F0010100910F49216010216160002128
:1078F000A1608021E160490021618900C4E905108F
:107900008800E0612046FDF7E7FE20B14FF4DC710E
:1079100006A002F0E3F80A484462606238BD000045
:107920000010024058000240AC0300202E2E5C42A2
:1079300053505C6273705F7773323831322E63005C
:107940006C03002010B5002306E000BF30F8024BA6
:1079500021F813405B1C9BB29342F7D310BD00008B
:107960002DE9F84F83460020ABF1006415468A46A6
:107970000090B4F5803F56D2FDF7EEFFA70AC4F39E
:107980004806C6F50074A54200D82C46DFF89C9046
:107990004FF0006000EB872080464FF400722349CF
:1079A000FFF7D0FF00204FF6FF7206E0331839F8DA
:1079B0001310914203D1401C80B2A042F6D3A042E2
:1079C0002BD21B48002101600121C0E902816946D8
:1079D000FDF724FF0020494607E000BF3AF81020D9
:1079E0008319401C21F8132080B2A042F6D30F491E
:1079F00040464FF4007200BF00F01CF8A54210D0C2
:107A0000281B0AEB440AA344002685B24FF40074F5
:107A10007F1CA542BCD82C46BAE7224651465846A0
:107A2000EAE7FDF74FFFBDE8F88F000038110020AE
:107A3000381500202DE9F04116460F460546002472
:107A40000AE000BF37F81420002329460120FDF783
:107A500043FF641CA4B2AD1CB442F3D3BDE8F08173
:107A6000012080F31388BFF34F8F05480168054A52
:107A700001F4E06111430160BFF34F8F00BFFDE7E8
:107A80000CED00E00400FA050EA002F029F80F4CFE
:107A90002079022804D0032808D004280DD008E05B
:107AA000022003F0D9FC6078012802D1E520FCF720
:107AB00097FF012003F01CF9EAE7032003F0CCFC58
:107AC000F4E70000BDF8C8EB31000000B902002067
:107AD00010B5FEF73FF8BDE8104003F015B970B5DA
